{"contracts/LostAndFound.sol":{"LostAndFound":{"abi":[{"inputs":[],"stateMutability":"nonpayable","type":"constructor"},{"inputs":[{"internalType":"address","name":"owner","type":"address"}],"name":"OwnableInvalidOwner","type":"error"},{"inputs":[{"internalType":"address","name":"account","type":"address"}],"name":"OwnableUnauthorizedAccount","type":"error"},{"anonymous":false,"inputs":[{"indexed":true,"internalType":"uint256","name":"complaintId","type":"uint256"},{"indexed":false,"internalType":"bool","name":"isLost","type":"bool"}],"name":"ComplaintFiled","type":"event"},{"anonymous":false,"inputs":[{"indexed":true,"internalType":"uint256","name":"complaintId","type":"uint256"}],"name":"ComplaintResolved","type":"event"},{"anonymous":false,"inputs":[{"indexed":true,"internalType":"address","name":"previousOwner","type":"address"},{"indexed":true,"internalType":"address","name":"newOwner","type":"address"}],"name":"OwnershipTransferred","type":"event"},{"anonymous":false,"inputs":[{"indexed":true,"internalType":"uint256","name":"subOrgId","type":"uint256"},{"indexed":false,"internalType":"address[]","name":"newAdmins","type":"address[]"}],"name":"SubOrganizationAdminsUpdated","type":"event"},{"anonymous":false,"inputs":[{"indexed":true,"internalType":"uint256","name":"subOrgId","type":"uint256"},{"indexed":false,"internalType":"address[]","name":"admins","type":"address[]"},{"indexed":false,"internalType":"string","name":"name","type":"string"}],"name":"SubOrganizationCreated","type":"event"},{"inputs":[],"name":"complaintCounter","outputs":[{"internalType":"uint256","name":"","type":"uint256"}],"stateMutability":"view","type":"function"},{"inputs":[{"internalType":"uint256","name":"","type":"uint256"}],"name":"complaints","outputs":[{"internalType":"string","name":"name","type":"string"},{"internalType":"uint256","name":"subOrgId","type":"uint256"},{"internalType":"address","name":"walletAddress","type":"address"},{"internalType":"string","name":"email","type":"string"},{"internalType":"string","name":"description","type":"string"},{"internalType":"bool","name":"isResolved","type":"bool"},{"internalType":"address","name":"resolvedBy","type":"address"},{"internalType":"bool","name":"isLost","type":"bool"}],"stateMutability":"view","type":"function"},{"inputs":[{"internalType":"uint256","name":"subOrgId","type":"uint256"},{"internalType":"address[]","name":"admins","type":"address[]"},{"internalType":"string","name":"name","type":"string"}],"name":"createSubOrganization","outputs":[],"stateMutability":"nonpayable","type":"function"},{"inputs":[{"internalType":"string","name":"name","type":"string"},{"internalType":"uint256","name":"subOrgId","type":"uint256"},{"internalType":"address","name":"walletAddress","type":"address"},{"internalType":"string","name":"email","type":"string"},{"internalType":"string","name":"description","type":"string"},{"internalType":"string[]","name":"images","type":"string[]"}],"name":"fileFoundComplaint","outputs":[],"stateMutability":"nonpayable","type":"function"},{"inputs":[{"internalType":"string","name":"name","type":"string"},{"internalType":"uint256","name":"subOrgId","type":"uint256"},{"internalType":"address","name":"walletAddress","type":"address"},{"internalType":"string","name":"email","type":"string"},{"internalType":"string","name":"description","type":"string"},{"internalType":"string[]","name":"images","type":"string[]"}],"name":"fileLostComplaint","outputs":[],"stateMutability":"nonpayable","type":"function"},{"inputs":[{"internalType":"uint256","name":"subOrgId","type":"uint256"}],"name":"getAdmins","outputs":[{"internalType":"address[]","name":"","type":"address[]"}],"stateMutability":"view","type":"function"},{"inputs":[{"internalType":"uint256","name":"subOrgId","type":"uint256"},{"internalType":"address","name":"user","type":"address"}],"name":"isAdmin","outputs":[{"internalType":"bool","name":"","type":"bool"}],"stateMutability":"view","type":"function"},{"inputs":[],"name":"listAllComplaints","outputs":[{"components":[{"internalType":"uint256","name":"complaintNumber","type":"uint256"},{"internalType":"string","name":"name","type":"string"},{"internalType":"uint256","name":"subOrgId","type":"uint256"},{"internalType":"address","name":"walletAddress","type":"address"},{"internalType":"string","name":"email","type":"string"},{"internalType":"string","name":"description","type":"string"},{"internalType":"string[]","name":"images","type":"string[]"},{"internalType":"bool","name":"isResolved","type":"bool"},{"internalType":"address","name":"resolvedBy","type":"address"},{"internalType":"bool","name":"isLost","type":"bool"}],"internalType":"struct LostAndFound.ComplaintWithNumber[]","name":"","type":"tuple[]"}],"stateMutability":"view","type":"function"},{"inputs":[],"name":"owner","outputs":[{"internalType":"address","name":"","type":"address"}],"stateMutability":"view","type":"function"},{"inputs":[],"name":"renounceOwnership","outputs":[],"stateMutability":"nonpayable","type":"function"},{"inputs":[{"internalType":"uint256","name":"complaintId","type":"uint256"}],"name":"resolveComplaint","outputs":[],"stateMutability":"nonpayable","type":"function"},{"inputs":[{"internalType":"uint256","name":"","type":"uint256"}],"name":"subOrganizations","outputs":[{"internalType":"string","name":"name","type":"string"},{"internalType":"bool","name":"exists","type":"bool"}],"stateMutability":"view","type":"function"},{"inputs":[{"internalType":"address","name":"newOwner","type":"address"}],"name":"transferOwnership","outputs":[],"stateMutability":"nonpayable","type":"function"},{"inputs":[{"internalType":"uint256","name":"subOrgId","type":"uint256"},{"internalType":"address[]","name":"newAdmins","type":"address[]"}],"name":"updateSubOrganizationAdmins","outputs":[],"stateMutability":"nonpayable","type":"function"}],"evm":{"bytecode":{"linkReferences":{},"object":"60806040523480156200001157600080fd5b5033600073ffffffffffffffffffffffffffffffffffffffff168173ffffffffffffffffffffffffffffffffffffffff1603620000885760006040517f1e4fbdf70000000000000000000000000000000000000000000000000000000081526004016200007f9190620001a9565b60405180910390fd5b6200009981620000a060201b60201c565b50620001c6565b60008060009054906101000a900473ffffffffffffffffffffffffffffffffffffffff169050816000806101000a81548173ffffffffffffffffffffffffffffffffffffffff021916908373ffffffffffffffffffffffffffffffffffffffff1602179055508173ffffffffffffffffffffffffffffffffffffffff168173ffffffffffffffffffffffffffffffffffffffff167f8be0079c531659141344cd1fd0a4f28419497f9722a3daafe3b4186f6b6457e060405160405180910390a35050565b600073ffffffffffffffffffffffffffffffffffffffff82169050919050565b6000620001918262000164565b9050919050565b620001a38162000184565b82525050565b6000602082019050620001c0600083018462000198565b92915050565b612ae580620001d66000396000f3fe608060405234801561001057600080fd5b50600436106100ea5760003560e01c80639350e08c1161008c5780639e10364d116100665780639e10364d14610253578063f239ee531461026f578063f2fde38b1461028b578063f760e144146102a7576100ea565b80639350e08c146101e957806395281648146102075780639d1b007614610237576100ea565b8063715018a6116100c8578063715018a61461016e5780637e69e9121461017857806387e3d46d146101af5780638da5cb5b146101cb576100ea565b80630ed74b62146100ef578063146a29111461010d57806368a5b28e1461013d575b600080fd5b6100f76102c3565b604051610104919061190d565b60405180910390f35b610127600480360381019061012291906119c6565b6102c9565b6040516101349190611a21565b60405180910390f35b61015760048036038101906101529190611a3c565b610419565b604051610165929190611af9565b60405180910390f35b6101766104d2565b005b610192600480360381019061018d9190611a3c565b6104e6565b6040516101a6989796959493929190611b38565b60405180910390f35b6101c960048036038101906101c49190611dc8565b610720565b005b6101d3610896565b6040516101e09190611e53565b60405180910390f35b6101f16108bf565b6040516101fe9190612158565b60405180910390f35b610221600480360381019061021c9190611a3c565b610cce565b60405161022e9190612229565b60405180910390f35b610251600480360381019061024c919061232c565b610dd5565b005b61026d6004803603810190610268919061232c565b611056565b005b61028960048036038101906102849190612429565b6112d7565b005b6102a560048036038101906102a09190612485565b6113ed565b005b6102c160048036038101906102bc9190611a3c565b611473565b005b60035481565b60006001600084815260200190815260200160002060020160009054906101000a900460ff166102fc5760009050610413565b60006001600085815260200190815260200160002060000180548060200260200160405190810160405280929190818152602001828054801561039457602002820191906000526020600020905b8160009054906101000a900473ffffffffffffffffffffffffffffffffffffffff1673ffffffffffffffffffffffffffffffffffffffff168152602001906001019080831161034a575b5050505050905060005b815181101561040c578373ffffffffffffffffffffffffffffffffffffffff168282815181106103d1576103d06124b2565b5b602002602001015173ffffffffffffffffffffffffffffffffffffffff16036103ff57600192505050610413565b808060010191505061039e565b5060009150505b92915050565b600160205280600052604060002060009150905080600101805461043c90612510565b80601f016020809104026020016040519081016040528092919081815260200182805461046890612510565b80156104b55780601f1061048a576101008083540402835291602001916104b5565b820191906000526020600020905b81548152906001019060200180831161049857829003601f168201915b5050505050908060020160009054906101000a900460ff16905082565b6104da6115ba565b6104e46000611641565b565b600260205280600052604060002060009150905080600001805461050990612510565b80601f016020809104026020016040519081016040528092919081815260200182805461053590612510565b80156105825780601f1061055757610100808354040283529160200191610582565b820191906000526020600020905b81548152906001019060200180831161056557829003601f168201915b5050505050908060010154908060020160009054906101000a900473ffffffffffffffffffffffffffffffffffffffff16908060030180546105c390612510565b80601f01602080910402602001604051908101604052809291908181526020018280546105ef90612510565b801561063c5780601f106106115761010080835404028352916020019161063c565b820191906000526020600020905b81548152906001019060200180831161061f57829003601f168201915b50505050509080600401805461065190612510565b80601f016020809104026020016040519081016040528092919081815260200182805461067d90612510565b80156106ca5780601f1061069f576101008083540402835291602001916106ca565b820191906000526020600020905b8154815290600101906020018083116106ad57829003601f168201915b5050505050908060060160009054906101000a900460ff16908060060160019054906101000a900473ffffffffffffffffffffffffffffffffffffffff16908060060160159054906101000a900460ff16905088565b6107286115ba565b6001600084815260200190815260200160002060020160009054906101000a900460ff161561078c576040517f08c379a00000000000000000000000000000000000000000000000000000000081526004016107839061258d565b60405180910390fd5b60008251116107d0576040517f08c379a00000000000000000000000000000000000000000000000000000000081526004016107c7906125f9565b60405180910390fd5b60405180606001604052808381526020018281526020016001151581525060016000858152602001908152602001600020600082015181600001908051906020019061081d92919061170d565b50602082015181600101908161083391906127c5565b5060408201518160020160006101000a81548160ff021916908315150217905550905050827fdfe1694fcd461575a4d6a9cd0e9c32562b86e21562d074ab4d4b6daf884937808383604051610889929190612897565b60405180910390a2505050565b60008060009054906101000a900473ffffffffffffffffffffffffffffffffffffffff16905090565b6060600060035467ffffffffffffffff8111156108df576108de611bd0565b5b60405190808252806020026020018201604052801561091857816020015b610905611797565b8152602001906001900390816108fd5790505b50905060005b600354811015610cc657600060026000838152602001908152602001600020905060405180610140016040528083815260200182600001805461096090612510565b80601f016020809104026020016040519081016040528092919081815260200182805461098c90612510565b80156109d95780601f106109ae576101008083540402835291602001916109d9565b820191906000526020600020905b8154815290600101906020018083116109bc57829003601f168201915b50505050508152602001826001015481526020018260020160009054906101000a900473ffffffffffffffffffffffffffffffffffffffff1673ffffffffffffffffffffffffffffffffffffffff168152602001826003018054610a3c90612510565b80601f0160208091040260200160405190810160405280929190818152602001828054610a6890612510565b8015610ab55780601f10610a8a57610100808354040283529160200191610ab5565b820191906000526020600020905b815481529060010190602001808311610a9857829003601f168201915b50505050508152602001826004018054610ace90612510565b80601f0160208091040260200160405190810160405280929190818152602001828054610afa90612510565b8015610b475780601f10610b1c57610100808354040283529160200191610b47565b820191906000526020600020905b815481529060010190602001808311610b2a57829003601f168201915b5050505050815260200182600501805480602002602001604051908101604052809291908181526020016000905b82821015610c21578382906000526020600020018054610b9490612510565b80601f0160208091040260200160405190810160405280929190818152602001828054610bc090612510565b8015610c0d5780601f10610be257610100808354040283529160200191610c0d565b820191906000526020600020905b815481529060010190602001808311610bf057829003601f168201915b505050505081526020019060010190610b75565b5050505081526020018260060160009054906101000a900460ff16151581526020018260060160019054906101000a900473ffffffffffffffffffffffffffffffffffffffff1673ffffffffffffffffffffffffffffffffffffffff1681526020018260060160159054906101000a900460ff161515815250838381518110610cad57610cac6124b2565b5b602002602001018190525050808060010191505061091e565b508091505090565b60606001600083815260200190815260200160002060020160009054906101000a900460ff16610d33576040517f08c379a0000000000000000000000000000000000000000000000000000000008152600401610d2a9061291a565b60405180910390fd5b60016000838152602001908152602001600020600001805480602002602001604051908101604052809291908181526020018280548015610dc957602002820191906000526020600020905b8160009054906101000a900473ffffffffffffffffffffffffffffffffffffffff1673ffffffffffffffffffffffffffffffffffffffff1681526020019060010190808311610d7f575b50505050509050919050565b6001600086815260200190815260200160002060020160009054906101000a900460ff16610e38576040517f08c379a0000000000000000000000000000000000000000000000000000000008152600401610e2f9061291a565b60405180910390fd5b6040518061012001604052808781526020018681526020018573ffffffffffffffffffffffffffffffffffffffff168152602001848152602001838152602001828152602001600015158152602001600073ffffffffffffffffffffffffffffffffffffffff168152602001600015158152506002600060035481526020019081526020016000206000820151816000019081610ed591906127c5565b506020820151816001015560408201518160020160006101000a81548173ffffffffffffffffffffffffffffffffffffffff021916908373ffffffffffffffffffffffffffffffffffffffff1602179055506060820151816003019081610f3c91906127c5565b506080820151816004019081610f5291906127c5565b5060a0820151816005019080519060200190610f6f92919061181a565b5060c08201518160060160006101000a81548160ff02191690831515021790555060e08201518160060160016101000a81548173ffffffffffffffffffffffffffffffffffffffff021916908373ffffffffffffffffffffffffffffffffffffffff1602179055506101008201518160060160156101000a81548160ff0219169083151502179055509050506003547fea2b4bbe2043dda8b40628f7f530c3d2d403ab1e29aa8981d1d1d7392226d66f600060405161102e9190611a21565b60405180910390a26003600081548092919061104990612969565b9190505550505050505050565b6001600086815260200190815260200160002060020160009054906101000a900460ff166110b9576040517f08c379a00000000000000000000000000000000000000000000000000000000081526004016110b09061291a565b60405180910390fd5b6040518061012001604052808781526020018681526020018573ffffffffffffffffffffffffffffffffffffffff168152602001848152602001838152602001828152602001600015158152602001600073ffffffffffffffffffffffffffffffffffffffff16815260200160011515815250600260006003548152602001908152602001600020600082015181600001908161115691906127c5565b506020820151816001015560408201518160020160006101000a81548173ffffffffffffffffffffffffffffffffffffffff021916908373ffffffffffffffffffffffffffffffffffffffff16021790555060608201518160030190816111bd91906127c5565b5060808201518160040190816111d391906127c5565b5060a08201518160050190805190602001906111f092919061181a565b5060c08201518160060160006101000a81548160ff02191690831515021790555060e08201518160060160016101000a81548173ffffffffffffffffffffffffffffffffffffffff021916908373ffffffffffffffffffffffffffffffffffffffff1602179055506101008201518160060160156101000a81548160ff0219169083151502179055509050506003547fea2b4bbe2043dda8b40628f7f530c3d2d403ab1e29aa8981d1d1d7392226d66f60016040516112af9190611a21565b60405180910390a2600360008154809291906112ca90612969565b9190505550505050505050565b6112df6115ba565b6001600083815260200190815260200160002060020160009054906101000a900460ff16611342576040517f08c379a00000000000000000000000000000000000000000000000000000000081526004016113399061291a565b60405180910390fd5b6000815111611386576040517f08c379a000000000000000000000000000000000000000000000000000000000815260040161137d906125f9565b60405180910390fd5b806001600084815260200190815260200160002060000190805190602001906113b092919061170d565b50817f56ee10cac94d2ac2241653d4921df0a3e359b93c4634aad2ad59608a524199d7826040516113e19190612229565b60405180910390a25050565b6113f56115ba565b600073ffffffffffffffffffffffffffffffffffffffff168173ffffffffffffffffffffffffffffffffffffffff16036114675760006040517f1e4fbdf700000000000000000000000000000000000000000000000000000000815260040161145e9190611e53565b60405180910390fd5b61147081611641565b50565b60006002600083815260200190815260200160002090508060060160009054906101000a900460ff16156114dc576040517f08c379a00000000000000000000000000000000000000000000000000000000081526004016114d3906129fd565b60405180910390fd5b6114ea8160010154336102c9565b611529576040517f08c379a000000000000000000000000000000000000000000000000000000000815260040161152090612a8f565b60405180910390fd5b60018160060160006101000a81548160ff021916908315150217905550338160060160016101000a81548173ffffffffffffffffffffffffffffffffffffffff021916908373ffffffffffffffffffffffffffffffffffffffff160217905550817fd26d73beab97391bb9b226331b35668847e983fc340816389ece17cac75fd2b260405160405180910390a25050565b6115c2611705565b73ffffffffffffffffffffffffffffffffffffffff166115e0610896565b73ffffffffffffffffffffffffffffffffffffffff161461163f57611603611705565b6040517f118cdaa70000000000000000000000000000000000000000000000000000000081526004016116369190611e53565b60405180910390fd5b565b60008060009054906101000a900473ffffffffffffffffffffffffffffffffffffffff169050816000806101000a81548173ffffffffffffffffffffffffffffffffffffffff021916908373ffffffffffffffffffffffffffffffffffffffff1602179055508173ffffffffffffffffffffffffffffffffffffffff168173ffffffffffffffffffffffffffffffffffffffff167f8be0079c531659141344cd1fd0a4f28419497f9722a3daafe3b4186f6b6457e060405160405180910390a35050565b600033905090565b828054828255906000526020600020908101928215611786579160200282015b828111156117855782518260006101000a81548173ffffffffffffffffffffffffffffffffffffffff021916908373ffffffffffffffffffffffffffffffffffffffff1602179055509160200191906001019061172d565b5b5090506117939190611873565b5090565b604051806101400160405280600081526020016060815260200160008152602001600073ffffffffffffffffffffffffffffffffffffffff168152602001606081526020016060815260200160608152602001600015158152602001600073ffffffffffffffffffffffffffffffffffffffff1681526020016000151581525090565b828054828255906000526020600020908101928215611862579160200282015b8281111561186157825182908161185191906127c5565b509160200191906001019061183a565b5b50905061186f9190611890565b5090565b5b8082111561188c576000816000905550600101611874565b5090565b5b808211156118b057600081816118a791906118b4565b50600101611891565b5090565b5080546118c090612510565b6000825580601f106118d257506118f1565b601f0160209004906000526020600020908101906118f09190611873565b5b50565b6000819050919050565b611907816118f4565b82525050565b600060208201905061192260008301846118fe565b92915050565b6000604051905090565b600080fd5b600080fd5b611945816118f4565b811461195057600080fd5b50565b6000813590506119628161193c565b92915050565b600073ffffffffffffffffffffffffffffffffffffffff82169050919050565b600061199382611968565b9050919050565b6119a381611988565b81146119ae57600080fd5b50565b6000813590506119c08161199a565b92915050565b600080604083850312156119dd576119dc611932565b5b60006119eb85828601611953565b92505060206119fc858286016119b1565b9150509250929050565b60008115159050919050565b611a1b81611a06565b82525050565b6000602082019050611a366000830184611a12565b92915050565b600060208284031215611a5257611a51611932565b5b6000611a6084828501611953565b91505092915050565b600081519050919050565b600082825260208201905092915050565b60005b83811015611aa3578082015181840152602081019050611a88565b60008484015250505050565b6000601f19601f8301169050919050565b6000611acb82611a69565b611ad58185611a74565b9350611ae5818560208601611a85565b611aee81611aaf565b840191505092915050565b60006040820190508181036000830152611b138185611ac0565b9050611b226020830184611a12565b9392505050565b611b3281611988565b82525050565b6000610100820190508181036000830152611b53818b611ac0565b9050611b62602083018a6118fe565b611b6f6040830189611b29565b8181036060830152611b818188611ac0565b90508181036080830152611b958187611ac0565b9050611ba460a0830186611a12565b611bb160c0830185611b29565b611bbe60e0830184611a12565b9998505050505050505050565b600080fd5b7f4e487b7100000000000000000000000000000000000000000000000000000000600052604160045260246000fd5b611c0882611aaf565b810181811067ffffffffffffffff82111715611c2757611c26611bd0565b5b80604052505050565b6000611c3a611928565b9050611c468282611bff565b919050565b600067ffffffffffffffff821115611c6657611c65611bd0565b5b602082029050602081019050919050565b600080fd5b6000611c8f611c8a84611c4b565b611c30565b90508083825260208201905060208402830185811115611cb257611cb1611c77565b5b835b81811015611cdb5780611cc788826119b1565b845260208401935050602081019050611cb4565b5050509392505050565b600082601f830112611cfa57611cf9611bcb565b5b8135611d0a848260208601611c7c565b91505092915050565b600080fd5b600067ffffffffffffffff821115611d3357611d32611bd0565b5b611d3c82611aaf565b9050602081019050919050565b82818337600083830152505050565b6000611d6b611d6684611d18565b611c30565b905082815260208101848484011115611d8757611d86611d13565b5b611d92848285611d49565b509392505050565b600082601f830112611daf57611dae611bcb565b5b8135611dbf848260208601611d58565b91505092915050565b600080600060608486031215611de157611de0611932565b5b6000611def86828701611953565b935050602084013567ffffffffffffffff811115611e1057611e0f611937565b5b611e1c86828701611ce5565b925050604084013567ffffffffffffffff811115611e3d57611e3c611937565b5b611e4986828701611d9a565b9150509250925092565b6000602082019050611e686000830184611b29565b92915050565b600081519050919050565b600082825260208201905092915050565b6000819050602082019050919050565b611ea3816118f4565b82525050565b600082825260208201905092915050565b6000611ec582611a69565b611ecf8185611ea9565b9350611edf818560208601611a85565b611ee881611aaf565b840191505092915050565b611efc81611988565b82525050565b600081519050919050565b600082825260208201905092915050565b6000819050602082019050919050565b6000611f3a8383611eba565b905092915050565b6000602082019050919050565b6000611f5a82611f02565b611f648185611f0d565b935083602082028501611f7685611f1e565b8060005b85811015611fb25784840389528151611f938582611f2e565b9450611f9e83611f42565b925060208a01995050600181019050611f7a565b50829750879550505050505092915050565b611fcd81611a06565b82525050565b600061014083016000830151611fec6000860182611e9a565b50602083015184820360208601526120048282611eba565b91505060408301516120196040860182611e9a565b50606083015161202c6060860182611ef3565b50608083015184820360808601526120448282611eba565b91505060a083015184820360a086015261205e8282611eba565b91505060c083015184820360c08601526120788282611f4f565b91505060e083015161208d60e0860182611fc4565b506101008301516120a2610100860182611ef3565b506101208301516120b7610120860182611fc4565b508091505092915050565b60006120ce8383611fd3565b905092915050565b6000602082019050919050565b60006120ee82611e6e565b6120f88185611e79565b93508360208202850161210a85611e8a565b8060005b85811015612146578484038952815161212785826120c2565b9450612132836120d6565b925060208a0199505060018101905061210e565b50829750879550505050505092915050565b6000602082019050818103600083015261217281846120e3565b905092915050565b600081519050919050565b600082825260208201905092915050565b6000819050602082019050919050565b60006121b28383611ef3565b60208301905092915050565b6000602082019050919050565b60006121d68261217a565b6121e08185612185565b93506121eb83612196565b8060005b8381101561221c57815161220388826121a6565b975061220e836121be565b9250506001810190506121ef565b5085935050505092915050565b6000602082019050818103600083015261224381846121cb565b905092915050565b600067ffffffffffffffff82111561226657612265611bd0565b5b602082029050602081019050919050565b600061228a6122858461224b565b611c30565b905080838252602082019050602084028301858111156122ad576122ac611c77565b5b835b818110156122f457803567ffffffffffffffff8111156122d2576122d1611bcb565b5b8086016122df8982611d9a565b855260208501945050506020810190506122af565b5050509392505050565b600082601f83011261231357612312611bcb565b5b8135612323848260208601612277565b91505092915050565b60008060008060008060c0878903121561234957612348611932565b5b600087013567ffffffffffffffff81111561236757612366611937565b5b61237389828a01611d9a565b965050602061238489828a01611953565b955050604061239589828a016119b1565b945050606087013567ffffffffffffffff8111156123b6576123b5611937565b5b6123c289828a01611d9a565b935050608087013567ffffffffffffffff8111156123e3576123e2611937565b5b6123ef89828a01611d9a565b92505060a087013567ffffffffffffffff8111156124105761240f611937565b5b61241c89828a016122fe565b9150509295509295509295565b600080604083850312156124405761243f611932565b5b600061244e85828601611953565b925050602083013567ffffffffffffffff81111561246f5761246e611937565b5b61247b85828601611ce5565b9150509250929050565b60006020828403121561249b5761249a611932565b5b60006124a9848285016119b1565b91505092915050565b7f4e487b7100000000000000000000000000000000000000000000000000000000600052603260045260246000fd5b7f4e487b7100000000000000000000000000000000000000000000000000000000600052602260045260246000fd5b6000600282049050600182168061252857607f821691505b60208210810361253b5761253a6124e1565b5b50919050565b7f5375622d6f7267616e697a6174696f6e20616c7265616479206578697374732e600082015250565b6000612577602083611a74565b915061258282612541565b602082019050919050565b600060208201905081810360008301526125a68161256a565b9050919050565b7f4174206c65617374206f6e652061646d696e2069732072657175697265642e00600082015250565b60006125e3601f83611a74565b91506125ee826125ad565b602082019050919050565b60006020820190508181036000830152612612816125d6565b9050919050565b60008190508160005260206000209050919050565b60006020601f8301049050919050565b600082821b905092915050565b60006008830261267b7fffffffffffffffffffffffffffffffffffffffffffffffffffffffffffffffff8261263e565b612685868361263e565b95508019841693508086168417925050509392505050565b6000819050919050565b60006126c26126bd6126b8846118f4565b61269d565b6118f4565b9050919050565b6000819050919050565b6126dc836126a7565b6126f06126e8826126c9565b84845461264b565b825550505050565b600090565b6127056126f8565b6127108184846126d3565b505050565b5b81811015612734576127296000826126fd565b600181019050612716565b5050565b601f8211156127795761274a81612619565b6127538461262e565b81016020851015612762578190505b61277661276e8561262e565b830182612715565b50505b505050565b600082821c905092915050565b600061279c6000198460080261277e565b1980831691505092915050565b60006127b5838361278b565b9150826002028217905092915050565b6127ce82611a69565b67ffffffffffffffff8111156127e7576127e6611bd0565b5b6127f18254612510565b6127fc828285612738565b600060209050601f83116001811461282f576000841561281d578287015190505b61282785826127a9565b86555061288f565b601f19841661283d86612619565b60005b8281101561286557848901518255600182019150602085019450602081019050612840565b86831015612882578489015161287e601f89168261278b565b8355505b6001600288020188555050505b505050505050565b600060408201905081810360008301526128b181856121cb565b905081810360208301526128c58184611ac0565b90509392505050565b7f5375622d6f7267616e697a6174696f6e20646f6573206e6f742065786973742e600082015250565b6000612904602083611a74565b915061290f826128ce565b602082019050919050565b60006020820190508181036000830152612933816128f7565b9050919050565b7f4e487b7100000000000000000000000000000000000000000000000000000000600052601160045260246000fd5b6000612974826118f4565b91507fffffffffffffffffffffffffffffffffffffffffffffffffffffffffffffffff82036129a6576129a561293a565b5b600182019050919050565b7f436f6d706c61696e7420697320616c7265616479207265736f6c7665642e0000600082015250565b60006129e7601e83611a74565b91506129f2826129b1565b602082019050919050565b60006020820190508181036000830152612a16816129da565b9050919050565b7f43616c6c6572206973206e6f7420616e2061646d696e206f662074686520726560008201527f6c6576616e74207375622d6f7267616e697a6174696f6e2e0000000000000000602082015250565b6000612a79603883611a74565b9150612a8482612a1d565b604082019050919050565b60006020820190508181036000830152612aa881612a6c565b905091905056fea2646970667358221220acffecbfef308303db5b5c875761c9fc7850a2414b8693e574dcf3885969c3e264736f6c63430008180033","opcodes":"PUSH1 0x80 PUSH1 0x40 MSTORE CALLVALUE DUP1 ISZERO PUSH3 0x11 JUMPI PUSH1 0x0 DUP1 REVERT JUMPDEST POP CALLER PUSH1 0x0 PUSH20 0xFFFFFFFFFFFFFFFFFFFFFFFFFFFFFFFFFFFFFFFF AND DUP2 PUSH20 0xFFFFFFFFFFFFFFFFFFFFFFFFFFFFFFFFFFFFFFFF AND SUB PUSH3 0x88 JUMPI PUSH1 0x0 PUSH1 0x40 MLOAD PUSH32 0x1E4FBDF700000000000000000000000000000000000000000000000000000000 DUP2 MSTORE PUSH1 0x4 ADD PUSH3 0x7F SWAP2 SWAP1 PUSH3 0x1A9 JUMP JUMPDEST PUSH1 0x40 MLOAD DUP1 SWAP2 SUB SWAP1 REVERT JUMPDEST PUSH3 0x99 DUP2 PUSH3 0xA0 PUSH1 0x20 SHL PUSH1 0x20 SHR JUMP JUMPDEST POP PUSH3 0x1C6 JUMP JUMPDEST PUSH1 0x0 DUP1 PUSH1 0x0 SWAP1 SLOAD SWAP1 PUSH2 0x100 EXP SWAP1 DIV PUSH20 0xFFFFFFFFFFFFFFFFFFFFFFFFFFFFFFFFFFFFFFFF AND SWAP1 POP DUP2 PUSH1 0x0 DUP1 PUSH2 0x100 EXP DUP2 SLOAD DUP2 PUSH20 0xFFFFFFFFFFFFFFFFFFFFFFFFFFFFFFFFFFFFFFFF MUL NOT AND SWAP1 DUP4 PUSH20 0xFFFFFFFFFFFFFFFFFFFFFFFFFFFFFFFFFFFFFFFF AND MUL OR SWAP1 SSTORE POP DUP2 PUSH20 0xFFFFFFFFFFFFFFFFFFFFFFFFFFFFFFFFFFFFFFFF AND DUP2 PUSH20 0xFFFFFFFFFFFFFFFFFFFFFFFFFFFFFFFFFFFFFFFF AND PUSH32 0x8BE0079C531659141344CD1FD0A4F28419497F9722A3DAAFE3B4186F6B6457E0 PUSH1 0x40 MLOAD PUSH1 0x40 MLOAD DUP1 SWAP2 SUB SWAP1 LOG3 POP POP JUMP JUMPDEST PUSH1 0x0 PUSH20 0xFFFFFFFFFFFFFFFFFFFFFFFFFFFFFFFFFFFFFFFF DUP3 AND SWAP1 POP SWAP2 SWAP1 POP JUMP JUMPDEST PUSH1 0x0 PUSH3 0x191 DUP3 PUSH3 0x164 JUMP JUMPDEST SWAP1 POP SWAP2 SWAP1 POP JUMP JUMPDEST PUSH3 0x1A3 DUP2 PUSH3 0x184 JUMP JUMPDEST DUP3 MSTORE POP POP JUMP JUMPDEST PUSH1 0x0 PUSH1 0x20 DUP3 ADD SWAP1 POP PUSH3 0x1C0 PUSH1 0x0 DUP4 ADD DUP5 PUSH3 0x198 JUMP JUMPDEST SWAP3 SWAP2 POP POP JUMP JUMPDEST PUSH2 0x2AE5 DUP1 PUSH3 0x1D6 PUSH1 0x0 CODECOPY PUSH1 0x0 RETURN INVALID PUSH1 0x80 PUSH1 0x40 MSTORE CALLVALUE DUP1 ISZERO PUSH2 0x10 JUMPI PUSH1 0x0 DUP1 REVERT JUMPDEST POP PUSH1 0x4 CALLDATASIZE LT PUSH2 0xEA JUMPI PUSH1 0x0 CALLDATALOAD PUSH1 0xE0 SHR DUP1 PUSH4 0x9350E08C GT PUSH2 0x8C JUMPI DUP1 PUSH4 0x9E10364D GT PUSH2 0x66 JUMPI DUP1 PUSH4 0x9E10364D EQ PUSH2 0x253 JUMPI DUP1 PUSH4 0xF239EE53 EQ PUSH2 0x26F JUMPI DUP1 PUSH4 0xF2FDE38B EQ PUSH2 0x28B JUMPI DUP1 PUSH4 0xF760E144 EQ PUSH2 0x2A7 JUMPI PUSH2 0xEA JUMP JUMPDEST DUP1 PUSH4 0x9350E08C EQ PUSH2 0x1E9 JUMPI DUP1 PUSH4 0x95281648 EQ PUSH2 0x207 JUMPI DUP1 PUSH4 0x9D1B0076 EQ PUSH2 0x237 JUMPI PUSH2 0xEA JUMP JUMPDEST DUP1 PUSH4 0x715018A6 GT PUSH2 0xC8 JUMPI DUP1 PUSH4 0x715018A6 EQ PUSH2 0x16E JUMPI DUP1 PUSH4 0x7E69E912 EQ PUSH2 0x178 JUMPI DUP1 PUSH4 0x87E3D46D EQ PUSH2 0x1AF JUMPI DUP1 PUSH4 0x8DA5CB5B EQ PUSH2 0x1CB JUMPI PUSH2 0xEA JUMP JUMPDEST DUP1 PUSH4 0xED74B62 EQ PUSH2 0xEF JUMPI DUP1 PUSH4 0x146A2911 EQ PUSH2 0x10D JUMPI DUP1 PUSH4 0x68A5B28E EQ PUSH2 0x13D JUMPI JUMPDEST PUSH1 0x0 DUP1 REVERT JUMPDEST PUSH2 0xF7 PUSH2 0x2C3 JUMP JUMPDEST PUSH1 0x40 MLOAD PUSH2 0x104 SWAP2 SWAP1 PUSH2 0x190D JUMP JUMPDEST PUSH1 0x40 MLOAD DUP1 SWAP2 SUB SWAP1 RETURN JUMPDEST PUSH2 0x127 PUSH1 0x4 DUP1 CALLDATASIZE SUB DUP2 ADD SWAP1 PUSH2 0x122 SWAP2 SWAP1 PUSH2 0x19C6 JUMP JUMPDEST PUSH2 0x2C9 JUMP JUMPDEST PUSH1 0x40 MLOAD PUSH2 0x134 SWAP2 SWAP1 PUSH2 0x1A21 JUMP JUMPDEST PUSH1 0x40 MLOAD DUP1 SWAP2 SUB SWAP1 RETURN JUMPDEST PUSH2 0x157 PUSH1 0x4 DUP1 CALLDATASIZE SUB DUP2 ADD SWAP1 PUSH2 0x152 SWAP2 SWAP1 PUSH2 0x1A3C JUMP JUMPDEST PUSH2 0x419 JUMP JUMPDEST PUSH1 0x40 MLOAD PUSH2 0x165 SWAP3 SWAP2 SWAP1 PUSH2 0x1AF9 JUMP JUMPDEST PUSH1 0x40 MLOAD DUP1 SWAP2 SUB SWAP1 RETURN JUMPDEST PUSH2 0x176 PUSH2 0x4D2 JUMP JUMPDEST STOP JUMPDEST PUSH2 0x192 PUSH1 0x4 DUP1 CALLDATASIZE SUB DUP2 ADD SWAP1 PUSH2 0x18D SWAP2 SWAP1 PUSH2 0x1A3C JUMP JUMPDEST PUSH2 0x4E6 JUMP JUMPDEST PUSH1 0x40 MLOAD PUSH2 0x1A6 SWAP9 SWAP8 SWAP7 SWAP6 SWAP5 SWAP4 SWAP3 SWAP2 SWAP1 PUSH2 0x1B38 JUMP JUMPDEST PUSH1 0x40 MLOAD DUP1 SWAP2 SUB SWAP1 RETURN JUMPDEST PUSH2 0x1C9 PUSH1 0x4 DUP1 CALLDATASIZE SUB DUP2 ADD SWAP1 PUSH2 0x1C4 SWAP2 SWAP1 PUSH2 0x1DC8 JUMP JUMPDEST PUSH2 0x720 JUMP JUMPDEST STOP JUMPDEST PUSH2 0x1D3 PUSH2 0x896 JUMP JUMPDEST PUSH1 0x40 MLOAD PUSH2 0x1E0 SWAP2 SWAP1 PUSH2 0x1E53 JUMP JUMPDEST PUSH1 0x40 MLOAD DUP1 SWAP2 SUB SWAP1 RETURN JUMPDEST PUSH2 0x1F1 PUSH2 0x8BF JUMP JUMPDEST PUSH1 0x40 MLOAD PUSH2 0x1FE SWAP2 SWAP1 PUSH2 0x2158 JUMP JUMPDEST PUSH1 0x40 MLOAD DUP1 SWAP2 SUB SWAP1 RETURN JUMPDEST PUSH2 0x221 PUSH1 0x4 DUP1 CALLDATASIZE SUB DUP2 ADD SWAP1 PUSH2 0x21C SWAP2 SWAP1 PUSH2 0x1A3C JUMP JUMPDEST PUSH2 0xCCE JUMP JUMPDEST PUSH1 0x40 MLOAD PUSH2 0x22E SWAP2 SWAP1 PUSH2 0x2229 JUMP JUMPDEST PUSH1 0x40 MLOAD DUP1 SWAP2 SUB SWAP1 RETURN JUMPDEST PUSH2 0x251 PUSH1 0x4 DUP1 CALLDATASIZE SUB DUP2 ADD SWAP1 PUSH2 0x24C SWAP2 SWAP1 PUSH2 0x232C JUMP JUMPDEST PUSH2 0xDD5 JUMP JUMPDEST STOP JUMPDEST PUSH2 0x26D PUSH1 0x4 DUP1 CALLDATASIZE SUB DUP2 ADD SWAP1 PUSH2 0x268 SWAP2 SWAP1 PUSH2 0x232C JUMP JUMPDEST PUSH2 0x1056 JUMP JUMPDEST STOP JUMPDEST PUSH2 0x289 PUSH1 0x4 DUP1 CALLDATASIZE SUB DUP2 ADD SWAP1 PUSH2 0x284 SWAP2 SWAP1 PUSH2 0x2429 JUMP JUMPDEST PUSH2 0x12D7 JUMP JUMPDEST STOP JUMPDEST PUSH2 0x2A5 PUSH1 0x4 DUP1 CALLDATASIZE SUB DUP2 ADD SWAP1 PUSH2 0x2A0 SWAP2 SWAP1 PUSH2 0x2485 JUMP JUMPDEST PUSH2 0x13ED JUMP JUMPDEST STOP JUMPDEST PUSH2 0x2C1 PUSH1 0x4 DUP1 CALLDATASIZE SUB DUP2 ADD SWAP1 PUSH2 0x2BC SWAP2 SWAP1 PUSH2 0x1A3C JUMP JUMPDEST PUSH2 0x1473 JUMP JUMPDEST STOP JUMPDEST PUSH1 0x3 SLOAD DUP2 JUMP JUMPDEST PUSH1 0x0 PUSH1 0x1 PUSH1 0x0 DUP5 DUP2 MSTORE PUSH1 0x20 ADD SWAP1 DUP2 MSTORE PUSH1 0x20 ADD PUSH1 0x0 KECCAK256 PUSH1 0x2 ADD PUSH1 0x0 SWAP1 SLOAD SWAP1 PUSH2 0x100 EXP SWAP1 DIV PUSH1 0xFF AND PUSH2 0x2FC JUMPI PUSH1 0x0 SWAP1 POP PUSH2 0x413 JUMP JUMPDEST PUSH1 0x0 PUSH1 0x1 PUSH1 0x0 DUP6 DUP2 MSTORE PUSH1 0x20 ADD SWAP1 DUP2 MSTORE PUSH1 0x20 ADD PUSH1 0x0 KECCAK256 PUSH1 0x0 ADD DUP1 SLOAD DUP1 PUSH1 0x20 MUL PUSH1 0x20 ADD PUSH1 0x40 MLOAD SWAP1 DUP2 ADD PUSH1 0x40 MSTORE DUP1 SWAP3 SWAP2 SWAP1 DUP2 DUP2 MSTORE PUSH1 0x20 ADD DUP3 DUP1 SLOAD DUP1 ISZERO PUSH2 0x394 JUMPI PUSH1 0x20 MUL DUP3 ADD SWAP2 SWAP1 PUSH1 0x0 MSTORE PUSH1 0x20 PUSH1 0x0 KECCAK256 SWAP1 JUMPDEST DUP2 PUSH1 0x0 SWAP1 SLOAD SWAP1 PUSH2 0x100 EXP SWAP1 DIV PUSH20 0xFFFFFFFFFFFFFFFFFFFFFFFFFFFFFFFFFFFFFFFF AND PUSH20 0xFFFFFFFFFFFFFFFFFFFFFFFFFFFFFFFFFFFFFFFF AND DUP2 MSTORE PUSH1 0x20 ADD SWAP1 PUSH1 0x1 ADD SWAP1 DUP1 DUP4 GT PUSH2 0x34A JUMPI JUMPDEST POP POP POP POP POP SWAP1 POP PUSH1 0x0 JUMPDEST DUP2 MLOAD DUP2 LT ISZERO PUSH2 0x40C JUMPI DUP4 PUSH20 0xFFFFFFFFFFFFFFFFFFFFFFFFFFFFFFFFFFFFFFFF AND DUP3 DUP3 DUP2 MLOAD DUP2 LT PUSH2 0x3D1 JUMPI PUSH2 0x3D0 PUSH2 0x24B2 JUMP JUMPDEST JUMPDEST PUSH1 0x20 MUL PUSH1 0x20 ADD ADD MLOAD PUSH20 0xFFFFFFFFFFFFFFFFFFFFFFFFFFFFFFFFFFFFFFFF AND SUB PUSH2 0x3FF JUMPI PUSH1 0x1 SWAP3 POP POP POP PUSH2 0x413 JUMP JUMPDEST DUP1 DUP1 PUSH1 0x1 ADD SWAP2 POP POP PUSH2 0x39E JUMP JUMPDEST POP PUSH1 0x0 SWAP2 POP POP JUMPDEST SWAP3 SWAP2 POP POP JUMP JUMPDEST PUSH1 0x1 PUSH1 0x20 MSTORE DUP1 PUSH1 0x0 MSTORE PUSH1 0x40 PUSH1 0x0 KECCAK256 PUSH1 0x0 SWAP2 POP SWAP1 POP DUP1 PUSH1 0x1 ADD DUP1 SLOAD PUSH2 0x43C SWAP1 PUSH2 0x2510 JUMP JUMPDEST DUP1 PUSH1 0x1F ADD PUSH1 0x20 DUP1 SWAP2 DIV MUL PUSH1 0x20 ADD PUSH1 0x40 MLOAD SWAP1 DUP2 ADD PUSH1 0x40 MSTORE DUP1 SWAP3 SWAP2 SWAP1 DUP2 DUP2 MSTORE PUSH1 0x20 ADD DUP3 DUP1 SLOAD PUSH2 0x468 SWAP1 PUSH2 0x2510 JUMP JUMPDEST DUP1 ISZERO PUSH2 0x4B5 JUMPI DUP1 PUSH1 0x1F LT PUSH2 0x48A JUMPI PUSH2 0x100 DUP1 DUP4 SLOAD DIV MUL DUP4 MSTORE SWAP2 PUSH1 0x20 ADD SWAP2 PUSH2 0x4B5 JUMP JUMPDEST DUP3 ADD SWAP2 SWAP1 PUSH1 0x0 MSTORE PUSH1 0x20 PUSH1 0x0 KECCAK256 SWAP1 JUMPDEST DUP2 SLOAD DUP2 MSTORE SWAP1 PUSH1 0x1 ADD SWAP1 PUSH1 0x20 ADD DUP1 DUP4 GT PUSH2 0x498 JUMPI DUP3 SWAP1 SUB PUSH1 0x1F AND DUP3 ADD SWAP2 JUMPDEST POP POP POP POP POP SWAP1 DUP1 PUSH1 0x2 ADD PUSH1 0x0 SWAP1 SLOAD SWAP1 PUSH2 0x100 EXP SWAP1 DIV PUSH1 0xFF AND SWAP1 POP DUP3 JUMP JUMPDEST PUSH2 0x4DA PUSH2 0x15BA JUMP JUMPDEST PUSH2 0x4E4 PUSH1 0x0 PUSH2 0x1641 JUMP JUMPDEST JUMP JUMPDEST PUSH1 0x2 PUSH1 0x20 MSTORE DUP1 PUSH1 0x0 MSTORE PUSH1 0x40 PUSH1 0x0 KECCAK256 PUSH1 0x0 SWAP2 POP SWAP1 POP DUP1 PUSH1 0x0 ADD DUP1 SLOAD PUSH2 0x509 SWAP1 PUSH2 0x2510 JUMP JUMPDEST DUP1 PUSH1 0x1F ADD PUSH1 0x20 DUP1 SWAP2 DIV MUL PUSH1 0x20 ADD PUSH1 0x40 MLOAD SWAP1 DUP2 ADD PUSH1 0x40 MSTORE DUP1 SWAP3 SWAP2 SWAP1 DUP2 DUP2 MSTORE PUSH1 0x20 ADD DUP3 DUP1 SLOAD PUSH2 0x535 SWAP1 PUSH2 0x2510 JUMP JUMPDEST DUP1 ISZERO PUSH2 0x582 JUMPI DUP1 PUSH1 0x1F LT PUSH2 0x557 JUMPI PUSH2 0x100 DUP1 DUP4 SLOAD DIV MUL DUP4 MSTORE SWAP2 PUSH1 0x20 ADD SWAP2 PUSH2 0x582 JUMP JUMPDEST DUP3 ADD SWAP2 SWAP1 PUSH1 0x0 MSTORE PUSH1 0x20 PUSH1 0x0 KECCAK256 SWAP1 JUMPDEST DUP2 SLOAD DUP2 MSTORE SWAP1 PUSH1 0x1 ADD SWAP1 PUSH1 0x20 ADD DUP1 DUP4 GT PUSH2 0x565 JUMPI DUP3 SWAP1 SUB PUSH1 0x1F AND DUP3 ADD SWAP2 JUMPDEST POP POP POP POP POP SWAP1 DUP1 PUSH1 0x1 ADD SLOAD SWAP1 DUP1 PUSH1 0x2 ADD PUSH1 0x0 SWAP1 SLOAD SWAP1 PUSH2 0x100 EXP SWAP1 DIV PUSH20 0xFFFFFFFFFFFFFFFFFFFFFFFFFFFFFFFFFFFFFFFF AND SWAP1 DUP1 PUSH1 0x3 ADD DUP1 SLOAD PUSH2 0x5C3 SWAP1 PUSH2 0x2510 JUMP JUMPDEST DUP1 PUSH1 0x1F ADD PUSH1 0x20 DUP1 SWAP2 DIV MUL PUSH1 0x20 ADD PUSH1 0x40 MLOAD SWAP1 DUP2 ADD PUSH1 0x40 MSTORE DUP1 SWAP3 SWAP2 SWAP1 DUP2 DUP2 MSTORE PUSH1 0x20 ADD DUP3 DUP1 SLOAD PUSH2 0x5EF SWAP1 PUSH2 0x2510 JUMP JUMPDEST DUP1 ISZERO PUSH2 0x63C JUMPI DUP1 PUSH1 0x1F LT PUSH2 0x611 JUMPI PUSH2 0x100 DUP1 DUP4 SLOAD DIV MUL DUP4 MSTORE SWAP2 PUSH1 0x20 ADD SWAP2 PUSH2 0x63C JUMP JUMPDEST DUP3 ADD SWAP2 SWAP1 PUSH1 0x0 MSTORE PUSH1 0x20 PUSH1 0x0 KECCAK256 SWAP1 JUMPDEST DUP2 SLOAD DUP2 MSTORE SWAP1 PUSH1 0x1 ADD SWAP1 PUSH1 0x20 ADD DUP1 DUP4 GT PUSH2 0x61F JUMPI DUP3 SWAP1 SUB PUSH1 0x1F AND DUP3 ADD SWAP2 JUMPDEST POP POP POP POP POP SWAP1 DUP1 PUSH1 0x4 ADD DUP1 SLOAD PUSH2 0x651 SWAP1 PUSH2 0x2510 JUMP JUMPDEST DUP1 PUSH1 0x1F ADD PUSH1 0x20 DUP1 SWAP2 DIV MUL PUSH1 0x20 ADD PUSH1 0x40 MLOAD SWAP1 DUP2 ADD PUSH1 0x40 MSTORE DUP1 SWAP3 SWAP2 SWAP1 DUP2 DUP2 MSTORE PUSH1 0x20 ADD DUP3 DUP1 SLOAD PUSH2 0x67D SWAP1 PUSH2 0x2510 JUMP JUMPDEST DUP1 ISZERO PUSH2 0x6CA JUMPI DUP1 PUSH1 0x1F LT PUSH2 0x69F JUMPI PUSH2 0x100 DUP1 DUP4 SLOAD DIV MUL DUP4 MSTORE SWAP2 PUSH1 0x20 ADD SWAP2 PUSH2 0x6CA JUMP JUMPDEST DUP3 ADD SWAP2 SWAP1 PUSH1 0x0 MSTORE PUSH1 0x20 PUSH1 0x0 KECCAK256 SWAP1 JUMPDEST DUP2 SLOAD DUP2 MSTORE SWAP1 PUSH1 0x1 ADD SWAP1 PUSH1 0x20 ADD DUP1 DUP4 GT PUSH2 0x6AD JUMPI DUP3 SWAP1 SUB PUSH1 0x1F AND DUP3 ADD SWAP2 JUMPDEST POP POP POP POP POP SWAP1 DUP1 PUSH1 0x6 ADD PUSH1 0x0 SWAP1 SLOAD SWAP1 PUSH2 0x100 EXP SWAP1 DIV PUSH1 0xFF AND SWAP1 DUP1 PUSH1 0x6 ADD PUSH1 0x1 SWAP1 SLOAD SWAP1 PUSH2 0x100 EXP SWAP1 DIV PUSH20 0xFFFFFFFFFFFFFFFFFFFFFFFFFFFFFFFFFFFFFFFF AND SWAP1 DUP1 PUSH1 0x6 ADD PUSH1 0x15 SWAP1 SLOAD SWAP1 PUSH2 0x100 EXP SWAP1 DIV PUSH1 0xFF AND SWAP1 POP DUP9 JUMP JUMPDEST PUSH2 0x728 PUSH2 0x15BA JUMP JUMPDEST PUSH1 0x1 PUSH1 0x0 DUP5 DUP2 MSTORE PUSH1 0x20 ADD SWAP1 DUP2 MSTORE PUSH1 0x20 ADD PUSH1 0x0 KECCAK256 PUSH1 0x2 ADD PUSH1 0x0 SWAP1 SLOAD SWAP1 PUSH2 0x100 EXP SWAP1 DIV PUSH1 0xFF AND ISZERO PUSH2 0x78C JUMPI PUSH1 0x40 MLOAD PUSH32 0x8C379A000000000000000000000000000000000000000000000000000000000 DUP2 MSTORE PUSH1 0x4 ADD PUSH2 0x783 SWAP1 PUSH2 0x258D JUMP JUMPDEST PUSH1 0x40 MLOAD DUP1 SWAP2 SUB SWAP1 REVERT JUMPDEST PUSH1 0x0 DUP3 MLOAD GT PUSH2 0x7D0 JUMPI PUSH1 0x40 MLOAD PUSH32 0x8C379A000000000000000000000000000000000000000000000000000000000 DUP2 MSTORE PUSH1 0x4 ADD PUSH2 0x7C7 SWAP1 PUSH2 0x25F9 JUMP JUMPDEST PUSH1 0x40 MLOAD DUP1 SWAP2 SUB SWAP1 REVERT JUMPDEST PUSH1 0x40 MLOAD DUP1 PUSH1 0x60 ADD PUSH1 0x40 MSTORE DUP1 DUP4 DUP2 MSTORE PUSH1 0x20 ADD DUP3 DUP2 MSTORE PUSH1 0x20 ADD PUSH1 0x1 ISZERO ISZERO DUP2 MSTORE POP PUSH1 0x1 PUSH1 0x0 DUP6 DUP2 MSTORE PUSH1 0x20 ADD SWAP1 DUP2 MSTORE PUSH1 0x20 ADD PUSH1 0x0 KECCAK256 PUSH1 0x0 DUP3 ADD MLOAD DUP2 PUSH1 0x0 ADD SWAP1 DUP1 MLOAD SWAP1 PUSH1 0x20 ADD SWAP1 PUSH2 0x81D SWAP3 SWAP2 SWAP1 PUSH2 0x170D JUMP JUMPDEST POP PUSH1 0x20 DUP3 ADD MLOAD DUP2 PUSH1 0x1 ADD SWAP1 DUP2 PUSH2 0x833 SWAP2 SWAP1 PUSH2 0x27C5 JUMP JUMPDEST POP PUSH1 0x40 DUP3 ADD MLOAD DUP2 PUSH1 0x2 ADD PUSH1 0x0 PUSH2 0x100 EXP DUP2 SLOAD DUP2 PUSH1 0xFF MUL NOT AND SWAP1 DUP4 ISZERO ISZERO MUL OR SWAP1 SSTORE POP SWAP1 POP POP DUP3 PUSH32 0xDFE1694FCD461575A4D6A9CD0E9C32562B86E21562D074AB4D4B6DAF88493780 DUP4 DUP4 PUSH1 0x40 MLOAD PUSH2 0x889 SWAP3 SWAP2 SWAP1 PUSH2 0x2897 JUMP JUMPDEST PUSH1 0x40 MLOAD DUP1 SWAP2 SUB SWAP1 LOG2 POP POP POP JUMP JUMPDEST PUSH1 0x0 DUP1 PUSH1 0x0 SWAP1 SLOAD SWAP1 PUSH2 0x100 EXP SWAP1 DIV PUSH20 0xFFFFFFFFFFFFFFFFFFFFFFFFFFFFFFFFFFFFFFFF AND SWAP1 POP SWAP1 JUMP JUMPDEST PUSH1 0x60 PUSH1 0x0 PUSH1 0x3 SLOAD PUSH8 0xFFFFFFFFFFFFFFFF DUP2 GT ISZERO PUSH2 0x8DF JUMPI PUSH2 0x8DE PUSH2 0x1BD0 JUMP JUMPDEST JUMPDEST PUSH1 0x40 MLOAD SWAP1 DUP1 DUP3 MSTORE DUP1 PUSH1 0x20 MUL PUSH1 0x20 ADD DUP3 ADD PUSH1 0x40 MSTORE DUP1 ISZERO PUSH2 0x918 JUMPI DUP2 PUSH1 0x20 ADD JUMPDEST PUSH2 0x905 PUSH2 0x1797 JUMP JUMPDEST DUP2 MSTORE PUSH1 0x20 ADD SWAP1 PUSH1 0x1 SWAP1 SUB SWAP1 DUP2 PUSH2 0x8FD JUMPI SWAP1 POP JUMPDEST POP SWAP1 POP PUSH1 0x0 JUMPDEST PUSH1 0x3 SLOAD DUP2 LT ISZERO PUSH2 0xCC6 JUMPI PUSH1 0x0 PUSH1 0x2 PUSH1 0x0 DUP4 DUP2 MSTORE PUSH1 0x20 ADD SWAP1 DUP2 MSTORE PUSH1 0x20 ADD PUSH1 0x0 KECCAK256 SWAP1 POP PUSH1 0x40 MLOAD DUP1 PUSH2 0x140 ADD PUSH1 0x40 MSTORE DUP1 DUP4 DUP2 MSTORE PUSH1 0x20 ADD DUP3 PUSH1 0x0 ADD DUP1 SLOAD PUSH2 0x960 SWAP1 PUSH2 0x2510 JUMP JUMPDEST DUP1 PUSH1 0x1F ADD PUSH1 0x20 DUP1 SWAP2 DIV MUL PUSH1 0x20 ADD PUSH1 0x40 MLOAD SWAP1 DUP2 ADD PUSH1 0x40 MSTORE DUP1 SWAP3 SWAP2 SWAP1 DUP2 DUP2 MSTORE PUSH1 0x20 ADD DUP3 DUP1 SLOAD PUSH2 0x98C SWAP1 PUSH2 0x2510 JUMP JUMPDEST DUP1 ISZERO PUSH2 0x9D9 JUMPI DUP1 PUSH1 0x1F LT PUSH2 0x9AE JUMPI PUSH2 0x100 DUP1 DUP4 SLOAD DIV MUL DUP4 MSTORE SWAP2 PUSH1 0x20 ADD SWAP2 PUSH2 0x9D9 JUMP JUMPDEST DUP3 ADD SWAP2 SWAP1 PUSH1 0x0 MSTORE PUSH1 0x20 PUSH1 0x0 KECCAK256 SWAP1 JUMPDEST DUP2 SLOAD DUP2 MSTORE SWAP1 PUSH1 0x1 ADD SWAP1 PUSH1 0x20 ADD DUP1 DUP4 GT PUSH2 0x9BC JUMPI DUP3 SWAP1 SUB PUSH1 0x1F AND DUP3 ADD SWAP2 JUMPDEST POP POP POP POP POP DUP2 MSTORE PUSH1 0x20 ADD DUP3 PUSH1 0x1 ADD SLOAD DUP2 MSTORE PUSH1 0x20 ADD DUP3 PUSH1 0x2 ADD PUSH1 0x0 SWAP1 SLOAD SWAP1 PUSH2 0x100 EXP SWAP1 DIV PUSH20 0xFFFFFFFFFFFFFFFFFFFFFFFFFFFFFFFFFFFFFFFF AND PUSH20 0xFFFFFFFFFFFFFFFFFFFFFFFFFFFFFFFFFFFFFFFF AND DUP2 MSTORE PUSH1 0x20 ADD DUP3 PUSH1 0x3 ADD DUP1 SLOAD PUSH2 0xA3C SWAP1 PUSH2 0x2510 JUMP JUMPDEST DUP1 PUSH1 0x1F ADD PUSH1 0x20 DUP1 SWAP2 DIV MUL PUSH1 0x20 ADD PUSH1 0x40 MLOAD SWAP1 DUP2 ADD PUSH1 0x40 MSTORE DUP1 SWAP3 SWAP2 SWAP1 DUP2 DUP2 MSTORE PUSH1 0x20 ADD DUP3 DUP1 SLOAD PUSH2 0xA68 SWAP1 PUSH2 0x2510 JUMP JUMPDEST DUP1 ISZERO PUSH2 0xAB5 JUMPI DUP1 PUSH1 0x1F LT PUSH2 0xA8A JUMPI PUSH2 0x100 DUP1 DUP4 SLOAD DIV MUL DUP4 MSTORE SWAP2 PUSH1 0x20 ADD SWAP2 PUSH2 0xAB5 JUMP JUMPDEST DUP3 ADD SWAP2 SWAP1 PUSH1 0x0 MSTORE PUSH1 0x20 PUSH1 0x0 KECCAK256 SWAP1 JUMPDEST DUP2 SLOAD DUP2 MSTORE SWAP1 PUSH1 0x1 ADD SWAP1 PUSH1 0x20 ADD DUP1 DUP4 GT PUSH2 0xA98 JUMPI DUP3 SWAP1 SUB PUSH1 0x1F AND DUP3 ADD SWAP2 JUMPDEST POP POP POP POP POP DUP2 MSTORE PUSH1 0x20 ADD DUP3 PUSH1 0x4 ADD DUP1 SLOAD PUSH2 0xACE SWAP1 PUSH2 0x2510 JUMP JUMPDEST DUP1 PUSH1 0x1F ADD PUSH1 0x20 DUP1 SWAP2 DIV MUL PUSH1 0x20 ADD PUSH1 0x40 MLOAD SWAP1 DUP2 ADD PUSH1 0x40 MSTORE DUP1 SWAP3 SWAP2 SWAP1 DUP2 DUP2 MSTORE PUSH1 0x20 ADD DUP3 DUP1 SLOAD PUSH2 0xAFA SWAP1 PUSH2 0x2510 JUMP JUMPDEST DUP1 ISZERO PUSH2 0xB47 JUMPI DUP1 PUSH1 0x1F LT PUSH2 0xB1C JUMPI PUSH2 0x100 DUP1 DUP4 SLOAD DIV MUL DUP4 MSTORE SWAP2 PUSH1 0x20 ADD SWAP2 PUSH2 0xB47 JUMP JUMPDEST DUP3 ADD SWAP2 SWAP1 PUSH1 0x0 MSTORE PUSH1 0x20 PUSH1 0x0 KECCAK256 SWAP1 JUMPDEST DUP2 SLOAD DUP2 MSTORE SWAP1 PUSH1 0x1 ADD SWAP1 PUSH1 0x20 ADD DUP1 DUP4 GT PUSH2 0xB2A JUMPI DUP3 SWAP1 SUB PUSH1 0x1F AND DUP3 ADD SWAP2 JUMPDEST POP POP POP POP POP DUP2 MSTORE PUSH1 0x20 ADD DUP3 PUSH1 0x5 ADD DUP1 SLOAD DUP1 PUSH1 0x20 MUL PUSH1 0x20 ADD PUSH1 0x40 MLOAD SWAP1 DUP2 ADD PUSH1 0x40 MSTORE DUP1 SWAP3 SWAP2 SWAP1 DUP2 DUP2 MSTORE PUSH1 0x20 ADD PUSH1 0x0 SWAP1 JUMPDEST DUP3 DUP3 LT ISZERO PUSH2 0xC21 JUMPI DUP4 DUP3 SWAP1 PUSH1 0x0 MSTORE PUSH1 0x20 PUSH1 0x0 KECCAK256 ADD DUP1 SLOAD PUSH2 0xB94 SWAP1 PUSH2 0x2510 JUMP JUMPDEST DUP1 PUSH1 0x1F ADD PUSH1 0x20 DUP1 SWAP2 DIV MUL PUSH1 0x20 ADD PUSH1 0x40 MLOAD SWAP1 DUP2 ADD PUSH1 0x40 MSTORE DUP1 SWAP3 SWAP2 SWAP1 DUP2 DUP2 MSTORE PUSH1 0x20 ADD DUP3 DUP1 SLOAD PUSH2 0xBC0 SWAP1 PUSH2 0x2510 JUMP JUMPDEST DUP1 ISZERO PUSH2 0xC0D JUMPI DUP1 PUSH1 0x1F LT PUSH2 0xBE2 JUMPI PUSH2 0x100 DUP1 DUP4 SLOAD DIV MUL DUP4 MSTORE SWAP2 PUSH1 0x20 ADD SWAP2 PUSH2 0xC0D JUMP JUMPDEST DUP3 ADD SWAP2 SWAP1 PUSH1 0x0 MSTORE PUSH1 0x20 PUSH1 0x0 KECCAK256 SWAP1 JUMPDEST DUP2 SLOAD DUP2 MSTORE SWAP1 PUSH1 0x1 ADD SWAP1 PUSH1 0x20 ADD DUP1 DUP4 GT PUSH2 0xBF0 JUMPI DUP3 SWAP1 SUB PUSH1 0x1F AND DUP3 ADD SWAP2 JUMPDEST POP POP POP POP POP DUP2 MSTORE PUSH1 0x20 ADD SWAP1 PUSH1 0x1 ADD SWAP1 PUSH2 0xB75 JUMP JUMPDEST POP POP POP POP DUP2 MSTORE PUSH1 0x20 ADD DUP3 PUSH1 0x6 ADD PUSH1 0x0 SWAP1 SLOAD SWAP1 PUSH2 0x100 EXP SWAP1 DIV PUSH1 0xFF AND ISZERO ISZERO DUP2 MSTORE PUSH1 0x20 ADD DUP3 PUSH1 0x6 ADD PUSH1 0x1 SWAP1 SLOAD SWAP1 PUSH2 0x100 EXP SWAP1 DIV PUSH20 0xFFFFFFFFFFFFFFFFFFFFFFFFFFFFFFFFFFFFFFFF AND PUSH20 0xFFFFFFFFFFFFFFFFFFFFFFFFFFFFFFFFFFFFFFFF AND DUP2 MSTORE PUSH1 0x20 ADD DUP3 PUSH1 0x6 ADD PUSH1 0x15 SWAP1 SLOAD SWAP1 PUSH2 0x100 EXP SWAP1 DIV PUSH1 0xFF AND ISZERO ISZERO DUP2 MSTORE POP DUP4 DUP4 DUP2 MLOAD DUP2 LT PUSH2 0xCAD JUMPI PUSH2 0xCAC PUSH2 0x24B2 JUMP JUMPDEST JUMPDEST PUSH1 0x20 MUL PUSH1 0x20 ADD ADD DUP2 SWAP1 MSTORE POP POP DUP1 DUP1 PUSH1 0x1 ADD SWAP2 POP POP PUSH2 0x91E JUMP JUMPDEST POP DUP1 SWAP2 POP POP SWAP1 JUMP JUMPDEST PUSH1 0x60 PUSH1 0x1 PUSH1 0x0 DUP4 DUP2 MSTORE PUSH1 0x20 ADD SWAP1 DUP2 MSTORE PUSH1 0x20 ADD PUSH1 0x0 KECCAK256 PUSH1 0x2 ADD PUSH1 0x0 SWAP1 SLOAD SWAP1 PUSH2 0x100 EXP SWAP1 DIV PUSH1 0xFF AND PUSH2 0xD33 JUMPI PUSH1 0x40 MLOAD PUSH32 0x8C379A000000000000000000000000000000000000000000000000000000000 DUP2 MSTORE PUSH1 0x4 ADD PUSH2 0xD2A SWAP1 PUSH2 0x291A JUMP JUMPDEST PUSH1 0x40 MLOAD DUP1 SWAP2 SUB SWAP1 REVERT JUMPDEST PUSH1 0x1 PUSH1 0x0 DUP4 DUP2 MSTORE PUSH1 0x20 ADD SWAP1 DUP2 MSTORE PUSH1 0x20 ADD PUSH1 0x0 KECCAK256 PUSH1 0x0 ADD DUP1 SLOAD DUP1 PUSH1 0x20 MUL PUSH1 0x20 ADD PUSH1 0x40 MLOAD SWAP1 DUP2 ADD PUSH1 0x40 MSTORE DUP1 SWAP3 SWAP2 SWAP1 DUP2 DUP2 MSTORE PUSH1 0x20 ADD DUP3 DUP1 SLOAD DUP1 ISZERO PUSH2 0xDC9 JUMPI PUSH1 0x20 MUL DUP3 ADD SWAP2 SWAP1 PUSH1 0x0 MSTORE PUSH1 0x20 PUSH1 0x0 KECCAK256 SWAP1 JUMPDEST DUP2 PUSH1 0x0 SWAP1 SLOAD SWAP1 PUSH2 0x100 EXP SWAP1 DIV PUSH20 0xFFFFFFFFFFFFFFFFFFFFFFFFFFFFFFFFFFFFFFFF AND PUSH20 0xFFFFFFFFFFFFFFFFFFFFFFFFFFFFFFFFFFFFFFFF AND DUP2 MSTORE PUSH1 0x20 ADD SWAP1 PUSH1 0x1 ADD SWAP1 DUP1 DUP4 GT PUSH2 0xD7F JUMPI JUMPDEST POP POP POP POP POP SWAP1 POP SWAP2 SWAP1 POP JUMP JUMPDEST PUSH1 0x1 PUSH1 0x0 DUP7 DUP2 MSTORE PUSH1 0x20 ADD SWAP1 DUP2 MSTORE PUSH1 0x20 ADD PUSH1 0x0 KECCAK256 PUSH1 0x2 ADD PUSH1 0x0 SWAP1 SLOAD SWAP1 PUSH2 0x100 EXP SWAP1 DIV PUSH1 0xFF AND PUSH2 0xE38 JUMPI PUSH1 0x40 MLOAD PUSH32 0x8C379A000000000000000000000000000000000000000000000000000000000 DUP2 MSTORE PUSH1 0x4 ADD PUSH2 0xE2F SWAP1 PUSH2 0x291A JUMP JUMPDEST PUSH1 0x40 MLOAD DUP1 SWAP2 SUB SWAP1 REVERT JUMPDEST PUSH1 0x40 MLOAD DUP1 PUSH2 0x120 ADD PUSH1 0x40 MSTORE DUP1 DUP8 DUP2 MSTORE PUSH1 0x20 ADD DUP7 DUP2 MSTORE PUSH1 0x20 ADD DUP6 PUSH20 0xFFFFFFFFFFFFFFFFFFFFFFFFFFFFFFFFFFFFFFFF AND DUP2 MSTORE PUSH1 0x20 ADD DUP5 DUP2 MSTORE PUSH1 0x20 ADD DUP4 DUP2 MSTORE PUSH1 0x20 ADD DUP3 DUP2 MSTORE PUSH1 0x20 ADD PUSH1 0x0 ISZERO ISZERO DUP2 MSTORE PUSH1 0x20 ADD PUSH1 0x0 PUSH20 0xFFFFFFFFFFFFFFFFFFFFFFFFFFFFFFFFFFFFFFFF AND DUP2 MSTORE PUSH1 0x20 ADD PUSH1 0x0 ISZERO ISZERO DUP2 MSTORE POP PUSH1 0x2 PUSH1 0x0 PUSH1 0x3 SLOAD DUP2 MSTORE PUSH1 0x20 ADD SWAP1 DUP2 MSTORE PUSH1 0x20 ADD PUSH1 0x0 KECCAK256 PUSH1 0x0 DUP3 ADD MLOAD DUP2 PUSH1 0x0 ADD SWAP1 DUP2 PUSH2 0xED5 SWAP2 SWAP1 PUSH2 0x27C5 JUMP JUMPDEST POP PUSH1 0x20 DUP3 ADD MLOAD DUP2 PUSH1 0x1 ADD SSTORE PUSH1 0x40 DUP3 ADD MLOAD DUP2 PUSH1 0x2 ADD PUSH1 0x0 PUSH2 0x100 EXP DUP2 SLOAD DUP2 PUSH20 0xFFFFFFFFFFFFFFFFFFFFFFFFFFFFFFFFFFFFFFFF MUL NOT AND SWAP1 DUP4 PUSH20 0xFFFFFFFFFFFFFFFFFFFFFFFFFFFFFFFFFFFFFFFF AND MUL OR SWAP1 SSTORE POP PUSH1 0x60 DUP3 ADD MLOAD DUP2 PUSH1 0x3 ADD SWAP1 DUP2 PUSH2 0xF3C SWAP2 SWAP1 PUSH2 0x27C5 JUMP JUMPDEST POP PUSH1 0x80 DUP3 ADD MLOAD DUP2 PUSH1 0x4 ADD SWAP1 DUP2 PUSH2 0xF52 SWAP2 SWAP1 PUSH2 0x27C5 JUMP JUMPDEST POP PUSH1 0xA0 DUP3 ADD MLOAD DUP2 PUSH1 0x5 ADD SWAP1 DUP1 MLOAD SWAP1 PUSH1 0x20 ADD SWAP1 PUSH2 0xF6F SWAP3 SWAP2 SWAP1 PUSH2 0x181A JUMP JUMPDEST POP PUSH1 0xC0 DUP3 ADD MLOAD DUP2 PUSH1 0x6 ADD PUSH1 0x0 PUSH2 0x100 EXP DUP2 SLOAD DUP2 PUSH1 0xFF MUL NOT AND SWAP1 DUP4 ISZERO ISZERO MUL OR SWAP1 SSTORE POP PUSH1 0xE0 DUP3 ADD MLOAD DUP2 PUSH1 0x6 ADD PUSH1 0x1 PUSH2 0x100 EXP DUP2 SLOAD DUP2 PUSH20 0xFFFFFFFFFFFFFFFFFFFFFFFFFFFFFFFFFFFFFFFF MUL NOT AND SWAP1 DUP4 PUSH20 0xFFFFFFFFFFFFFFFFFFFFFFFFFFFFFFFFFFFFFFFF AND MUL OR SWAP1 SSTORE POP PUSH2 0x100 DUP3 ADD MLOAD DUP2 PUSH1 0x6 ADD PUSH1 0x15 PUSH2 0x100 EXP DUP2 SLOAD DUP2 PUSH1 0xFF MUL NOT AND SWAP1 DUP4 ISZERO ISZERO MUL OR SWAP1 SSTORE POP SWAP1 POP POP PUSH1 0x3 SLOAD PUSH32 0xEA2B4BBE2043DDA8B40628F7F530C3D2D403AB1E29AA8981D1D1D7392226D66F PUSH1 0x0 PUSH1 0x40 MLOAD PUSH2 0x102E SWAP2 SWAP1 PUSH2 0x1A21 JUMP JUMPDEST PUSH1 0x40 MLOAD DUP1 SWAP2 SUB SWAP1 LOG2 PUSH1 0x3 PUSH1 0x0 DUP2 SLOAD DUP1 SWAP3 SWAP2 SWAP1 PUSH2 0x1049 SWAP1 PUSH2 0x2969 JUMP JUMPDEST SWAP2 SWAP1 POP SSTORE POP POP POP POP POP POP POP JUMP JUMPDEST PUSH1 0x1 PUSH1 0x0 DUP7 DUP2 MSTORE PUSH1 0x20 ADD SWAP1 DUP2 MSTORE PUSH1 0x20 ADD PUSH1 0x0 KECCAK256 PUSH1 0x2 ADD PUSH1 0x0 SWAP1 SLOAD SWAP1 PUSH2 0x100 EXP SWAP1 DIV PUSH1 0xFF AND PUSH2 0x10B9 JUMPI PUSH1 0x40 MLOAD PUSH32 0x8C379A000000000000000000000000000000000000000000000000000000000 DUP2 MSTORE PUSH1 0x4 ADD PUSH2 0x10B0 SWAP1 PUSH2 0x291A JUMP JUMPDEST PUSH1 0x40 MLOAD DUP1 SWAP2 SUB SWAP1 REVERT JUMPDEST PUSH1 0x40 MLOAD DUP1 PUSH2 0x120 ADD PUSH1 0x40 MSTORE DUP1 DUP8 DUP2 MSTORE PUSH1 0x20 ADD DUP7 DUP2 MSTORE PUSH1 0x20 ADD DUP6 PUSH20 0xFFFFFFFFFFFFFFFFFFFFFFFFFFFFFFFFFFFFFFFF AND DUP2 MSTORE PUSH1 0x20 ADD DUP5 DUP2 MSTORE PUSH1 0x20 ADD DUP4 DUP2 MSTORE PUSH1 0x20 ADD DUP3 DUP2 MSTORE PUSH1 0x20 ADD PUSH1 0x0 ISZERO ISZERO DUP2 MSTORE PUSH1 0x20 ADD PUSH1 0x0 PUSH20 0xFFFFFFFFFFFFFFFFFFFFFFFFFFFFFFFFFFFFFFFF AND DUP2 MSTORE PUSH1 0x20 ADD PUSH1 0x1 ISZERO ISZERO DUP2 MSTORE POP PUSH1 0x2 PUSH1 0x0 PUSH1 0x3 SLOAD DUP2 MSTORE PUSH1 0x20 ADD SWAP1 DUP2 MSTORE PUSH1 0x20 ADD PUSH1 0x0 KECCAK256 PUSH1 0x0 DUP3 ADD MLOAD DUP2 PUSH1 0x0 ADD SWAP1 DUP2 PUSH2 0x1156 SWAP2 SWAP1 PUSH2 0x27C5 JUMP JUMPDEST POP PUSH1 0x20 DUP3 ADD MLOAD DUP2 PUSH1 0x1 ADD SSTORE PUSH1 0x40 DUP3 ADD MLOAD DUP2 PUSH1 0x2 ADD PUSH1 0x0 PUSH2 0x100 EXP DUP2 SLOAD DUP2 PUSH20 0xFFFFFFFFFFFFFFFFFFFFFFFFFFFFFFFFFFFFFFFF MUL NOT AND SWAP1 DUP4 PUSH20 0xFFFFFFFFFFFFFFFFFFFFFFFFFFFFFFFFFFFFFFFF AND MUL OR SWAP1 SSTORE POP PUSH1 0x60 DUP3 ADD MLOAD DUP2 PUSH1 0x3 ADD SWAP1 DUP2 PUSH2 0x11BD SWAP2 SWAP1 PUSH2 0x27C5 JUMP JUMPDEST POP PUSH1 0x80 DUP3 ADD MLOAD DUP2 PUSH1 0x4 ADD SWAP1 DUP2 PUSH2 0x11D3 SWAP2 SWAP1 PUSH2 0x27C5 JUMP JUMPDEST POP PUSH1 0xA0 DUP3 ADD MLOAD DUP2 PUSH1 0x5 ADD SWAP1 DUP1 MLOAD SWAP1 PUSH1 0x20 ADD SWAP1 PUSH2 0x11F0 SWAP3 SWAP2 SWAP1 PUSH2 0x181A JUMP JUMPDEST POP PUSH1 0xC0 DUP3 ADD MLOAD DUP2 PUSH1 0x6 ADD PUSH1 0x0 PUSH2 0x100 EXP DUP2 SLOAD DUP2 PUSH1 0xFF MUL NOT AND SWAP1 DUP4 ISZERO ISZERO MUL OR SWAP1 SSTORE POP PUSH1 0xE0 DUP3 ADD MLOAD DUP2 PUSH1 0x6 ADD PUSH1 0x1 PUSH2 0x100 EXP DUP2 SLOAD DUP2 PUSH20 0xFFFFFFFFFFFFFFFFFFFFFFFFFFFFFFFFFFFFFFFF MUL NOT AND SWAP1 DUP4 PUSH20 0xFFFFFFFFFFFFFFFFFFFFFFFFFFFFFFFFFFFFFFFF AND MUL OR SWAP1 SSTORE POP PUSH2 0x100 DUP3 ADD MLOAD DUP2 PUSH1 0x6 ADD PUSH1 0x15 PUSH2 0x100 EXP DUP2 SLOAD DUP2 PUSH1 0xFF MUL NOT AND SWAP1 DUP4 ISZERO ISZERO MUL OR SWAP1 SSTORE POP SWAP1 POP POP PUSH1 0x3 SLOAD PUSH32 0xEA2B4BBE2043DDA8B40628F7F530C3D2D403AB1E29AA8981D1D1D7392226D66F PUSH1 0x1 PUSH1 0x40 MLOAD PUSH2 0x12AF SWAP2 SWAP1 PUSH2 0x1A21 JUMP JUMPDEST PUSH1 0x40 MLOAD DUP1 SWAP2 SUB SWAP1 LOG2 PUSH1 0x3 PUSH1 0x0 DUP2 SLOAD DUP1 SWAP3 SWAP2 SWAP1 PUSH2 0x12CA SWAP1 PUSH2 0x2969 JUMP JUMPDEST SWAP2 SWAP1 POP SSTORE POP POP POP POP POP POP POP JUMP JUMPDEST PUSH2 0x12DF PUSH2 0x15BA JUMP JUMPDEST PUSH1 0x1 PUSH1 0x0 DUP4 DUP2 MSTORE PUSH1 0x20 ADD SWAP1 DUP2 MSTORE PUSH1 0x20 ADD PUSH1 0x0 KECCAK256 PUSH1 0x2 ADD PUSH1 0x0 SWAP1 SLOAD SWAP1 PUSH2 0x100 EXP SWAP1 DIV PUSH1 0xFF AND PUSH2 0x1342 JUMPI PUSH1 0x40 MLOAD PUSH32 0x8C379A000000000000000000000000000000000000000000000000000000000 DUP2 MSTORE PUSH1 0x4 ADD PUSH2 0x1339 SWAP1 PUSH2 0x291A JUMP JUMPDEST PUSH1 0x40 MLOAD DUP1 SWAP2 SUB SWAP1 REVERT JUMPDEST PUSH1 0x0 DUP2 MLOAD GT PUSH2 0x1386 JUMPI PUSH1 0x40 MLOAD PUSH32 0x8C379A000000000000000000000000000000000000000000000000000000000 DUP2 MSTORE PUSH1 0x4 ADD PUSH2 0x137D SWAP1 PUSH2 0x25F9 JUMP JUMPDEST PUSH1 0x40 MLOAD DUP1 SWAP2 SUB SWAP1 REVERT JUMPDEST DUP1 PUSH1 0x1 PUSH1 0x0 DUP5 DUP2 MSTORE PUSH1 0x20 ADD SWAP1 DUP2 MSTORE PUSH1 0x20 ADD PUSH1 0x0 KECCAK256 PUSH1 0x0 ADD SWAP1 DUP1 MLOAD SWAP1 PUSH1 0x20 ADD SWAP1 PUSH2 0x13B0 SWAP3 SWAP2 SWAP1 PUSH2 0x170D JUMP JUMPDEST POP DUP2 PUSH32 0x56EE10CAC94D2AC2241653D4921DF0A3E359B93C4634AAD2AD59608A524199D7 DUP3 PUSH1 0x40 MLOAD PUSH2 0x13E1 SWAP2 SWAP1 PUSH2 0x2229 JUMP JUMPDEST PUSH1 0x40 MLOAD DUP1 SWAP2 SUB SWAP1 LOG2 POP POP JUMP JUMPDEST PUSH2 0x13F5 PUSH2 0x15BA JUMP JUMPDEST PUSH1 0x0 PUSH20 0xFFFFFFFFFFFFFFFFFFFFFFFFFFFFFFFFFFFFFFFF AND DUP2 PUSH20 0xFFFFFFFFFFFFFFFFFFFFFFFFFFFFFFFFFFFFFFFF AND SUB PUSH2 0x1467 JUMPI PUSH1 0x0 PUSH1 0x40 MLOAD PUSH32 0x1E4FBDF700000000000000000000000000000000000000000000000000000000 DUP2 MSTORE PUSH1 0x4 ADD PUSH2 0x145E SWAP2 SWAP1 PUSH2 0x1E53 JUMP JUMPDEST PUSH1 0x40 MLOAD DUP1 SWAP2 SUB SWAP1 REVERT JUMPDEST PUSH2 0x1470 DUP2 PUSH2 0x1641 JUMP JUMPDEST POP JUMP JUMPDEST PUSH1 0x0 PUSH1 0x2 PUSH1 0x0 DUP4 DUP2 MSTORE PUSH1 0x20 ADD SWAP1 DUP2 MSTORE PUSH1 0x20 ADD PUSH1 0x0 KECCAK256 SWAP1 POP DUP1 PUSH1 0x6 ADD PUSH1 0x0 SWAP1 SLOAD SWAP1 PUSH2 0x100 EXP SWAP1 DIV PUSH1 0xFF AND ISZERO PUSH2 0x14DC JUMPI PUSH1 0x40 MLOAD PUSH32 0x8C379A000000000000000000000000000000000000000000000000000000000 DUP2 MSTORE PUSH1 0x4 ADD PUSH2 0x14D3 SWAP1 PUSH2 0x29FD JUMP JUMPDEST PUSH1 0x40 MLOAD DUP1 SWAP2 SUB SWAP1 REVERT JUMPDEST PUSH2 0x14EA DUP2 PUSH1 0x1 ADD SLOAD CALLER PUSH2 0x2C9 JUMP JUMPDEST PUSH2 0x1529 JUMPI PUSH1 0x40 MLOAD PUSH32 0x8C379A000000000000000000000000000000000000000000000000000000000 DUP2 MSTORE PUSH1 0x4 ADD PUSH2 0x1520 SWAP1 PUSH2 0x2A8F JUMP JUMPDEST PUSH1 0x40 MLOAD DUP1 SWAP2 SUB SWAP1 REVERT JUMPDEST PUSH1 0x1 DUP2 PUSH1 0x6 ADD PUSH1 0x0 PUSH2 0x100 EXP DUP2 SLOAD DUP2 PUSH1 0xFF MUL NOT AND SWAP1 DUP4 ISZERO ISZERO MUL OR SWAP1 SSTORE POP CALLER DUP2 PUSH1 0x6 ADD PUSH1 0x1 PUSH2 0x100 EXP DUP2 SLOAD DUP2 PUSH20 0xFFFFFFFFFFFFFFFFFFFFFFFFFFFFFFFFFFFFFFFF MUL NOT AND SWAP1 DUP4 PUSH20 0xFFFFFFFFFFFFFFFFFFFFFFFFFFFFFFFFFFFFFFFF AND MUL OR SWAP1 SSTORE POP DUP2 PUSH32 0xD26D73BEAB97391BB9B226331B35668847E983FC340816389ECE17CAC75FD2B2 PUSH1 0x40 MLOAD PUSH1 0x40 MLOAD DUP1 SWAP2 SUB SWAP1 LOG2 POP POP JUMP JUMPDEST PUSH2 0x15C2 PUSH2 0x1705 JUMP JUMPDEST PUSH20 0xFFFFFFFFFFFFFFFFFFFFFFFFFFFFFFFFFFFFFFFF AND PUSH2 0x15E0 PUSH2 0x896 JUMP JUMPDEST PUSH20 0xFFFFFFFFFFFFFFFFFFFFFFFFFFFFFFFFFFFFFFFF AND EQ PUSH2 0x163F JUMPI PUSH2 0x1603 PUSH2 0x1705 JUMP JUMPDEST PUSH1 0x40 MLOAD PUSH32 0x118CDAA700000000000000000000000000000000000000000000000000000000 DUP2 MSTORE PUSH1 0x4 ADD PUSH2 0x1636 SWAP2 SWAP1 PUSH2 0x1E53 JUMP JUMPDEST PUSH1 0x40 MLOAD DUP1 SWAP2 SUB SWAP1 REVERT JUMPDEST JUMP JUMPDEST PUSH1 0x0 DUP1 PUSH1 0x0 SWAP1 SLOAD SWAP1 PUSH2 0x100 EXP SWAP1 DIV PUSH20 0xFFFFFFFFFFFFFFFFFFFFFFFFFFFFFFFFFFFFFFFF AND SWAP1 POP DUP2 PUSH1 0x0 DUP1 PUSH2 0x100 EXP DUP2 SLOAD DUP2 PUSH20 0xFFFFFFFFFFFFFFFFFFFFFFFFFFFFFFFFFFFFFFFF MUL NOT AND SWAP1 DUP4 PUSH20 0xFFFFFFFFFFFFFFFFFFFFFFFFFFFFFFFFFFFFFFFF AND MUL OR SWAP1 SSTORE POP DUP2 PUSH20 0xFFFFFFFFFFFFFFFFFFFFFFFFFFFFFFFFFFFFFFFF AND DUP2 PUSH20 0xFFFFFFFFFFFFFFFFFFFFFFFFFFFFFFFFFFFFFFFF AND PUSH32 0x8BE0079C531659141344CD1FD0A4F28419497F9722A3DAAFE3B4186F6B6457E0 PUSH1 0x40 MLOAD PUSH1 0x40 MLOAD DUP1 SWAP2 SUB SWAP1 LOG3 POP POP JUMP JUMPDEST PUSH1 0x0 CALLER SWAP1 POP SWAP1 JUMP JUMPDEST DUP3 DUP1 SLOAD DUP3 DUP3 SSTORE SWAP1 PUSH1 0x0 MSTORE PUSH1 0x20 PUSH1 0x0 KECCAK256 SWAP1 DUP2 ADD SWAP3 DUP3 ISZERO PUSH2 0x1786 JUMPI SWAP2 PUSH1 0x20 MUL DUP3 ADD JUMPDEST DUP3 DUP2 GT ISZERO PUSH2 0x1785 JUMPI DUP3 MLOAD DUP3 PUSH1 0x0 PUSH2 0x100 EXP DUP2 SLOAD DUP2 PUSH20 0xFFFFFFFFFFFFFFFFFFFFFFFFFFFFFFFFFFFFFFFF MUL NOT AND SWAP1 DUP4 PUSH20 0xFFFFFFFFFFFFFFFFFFFFFFFFFFFFFFFFFFFFFFFF AND MUL OR SWAP1 SSTORE POP SWAP2 PUSH1 0x20 ADD SWAP2 SWAP1 PUSH1 0x1 ADD SWAP1 PUSH2 0x172D JUMP JUMPDEST JUMPDEST POP SWAP1 POP PUSH2 0x1793 SWAP2 SWAP1 PUSH2 0x1873 JUMP JUMPDEST POP SWAP1 JUMP JUMPDEST PUSH1 0x40 MLOAD DUP1 PUSH2 0x140 ADD PUSH1 0x40 MSTORE DUP1 PUSH1 0x0 DUP2 MSTORE PUSH1 0x20 ADD PUSH1 0x60 DUP2 MSTORE PUSH1 0x20 ADD PUSH1 0x0 DUP2 MSTORE PUSH1 0x20 ADD PUSH1 0x0 PUSH20 0xFFFFFFFFFFFFFFFFFFFFFFFFFFFFFFFFFFFFFFFF AND DUP2 MSTORE PUSH1 0x20 ADD PUSH1 0x60 DUP2 MSTORE PUSH1 0x20 ADD PUSH1 0x60 DUP2 MSTORE PUSH1 0x20 ADD PUSH1 0x60 DUP2 MSTORE PUSH1 0x20 ADD PUSH1 0x0 ISZERO ISZERO DUP2 MSTORE PUSH1 0x20 ADD PUSH1 0x0 PUSH20 0xFFFFFFFFFFFFFFFFFFFFFFFFFFFFFFFFFFFFFFFF AND DUP2 MSTORE PUSH1 0x20 ADD PUSH1 0x0 ISZERO ISZERO DUP2 MSTORE POP SWAP1 JUMP JUMPDEST DUP3 DUP1 SLOAD DUP3 DUP3 SSTORE SWAP1 PUSH1 0x0 MSTORE PUSH1 0x20 PUSH1 0x0 KECCAK256 SWAP1 DUP2 ADD SWAP3 DUP3 ISZERO PUSH2 0x1862 JUMPI SWAP2 PUSH1 0x20 MUL DUP3 ADD JUMPDEST DUP3 DUP2 GT ISZERO PUSH2 0x1861 JUMPI DUP3 MLOAD DUP3 SWAP1 DUP2 PUSH2 0x1851 SWAP2 SWAP1 PUSH2 0x27C5 JUMP JUMPDEST POP SWAP2 PUSH1 0x20 ADD SWAP2 SWAP1 PUSH1 0x1 ADD SWAP1 PUSH2 0x183A JUMP JUMPDEST JUMPDEST POP SWAP1 POP PUSH2 0x186F SWAP2 SWAP1 PUSH2 0x1890 JUMP JUMPDEST POP SWAP1 JUMP JUMPDEST JUMPDEST DUP1 DUP3 GT ISZERO PUSH2 0x188C JUMPI PUSH1 0x0 DUP2 PUSH1 0x0 SWAP1 SSTORE POP PUSH1 0x1 ADD PUSH2 0x1874 JUMP JUMPDEST POP SWAP1 JUMP JUMPDEST JUMPDEST DUP1 DUP3 GT ISZERO PUSH2 0x18B0 JUMPI PUSH1 0x0 DUP2 DUP2 PUSH2 0x18A7 SWAP2 SWAP1 PUSH2 0x18B4 JUMP JUMPDEST POP PUSH1 0x1 ADD PUSH2 0x1891 JUMP JUMPDEST POP SWAP1 JUMP JUMPDEST POP DUP1 SLOAD PUSH2 0x18C0 SWAP1 PUSH2 0x2510 JUMP JUMPDEST PUSH1 0x0 DUP3 SSTORE DUP1 PUSH1 0x1F LT PUSH2 0x18D2 JUMPI POP PUSH2 0x18F1 JUMP JUMPDEST PUSH1 0x1F ADD PUSH1 0x20 SWAP1 DIV SWAP1 PUSH1 0x0 MSTORE PUSH1 0x20 PUSH1 0x0 KECCAK256 SWAP1 DUP2 ADD SWAP1 PUSH2 0x18F0 SWAP2 SWAP1 PUSH2 0x1873 JUMP JUMPDEST JUMPDEST POP JUMP JUMPDEST PUSH1 0x0 DUP2 SWAP1 POP SWAP2 SWAP1 POP JUMP JUMPDEST PUSH2 0x1907 DUP2 PUSH2 0x18F4 JUMP JUMPDEST DUP3 MSTORE POP POP JUMP JUMPDEST PUSH1 0x0 PUSH1 0x20 DUP3 ADD SWAP1 POP PUSH2 0x1922 PUSH1 0x0 DUP4 ADD DUP5 PUSH2 0x18FE JUMP JUMPDEST SWAP3 SWAP2 POP POP JUMP JUMPDEST PUSH1 0x0 PUSH1 0x40 MLOAD SWAP1 POP SWAP1 JUMP JUMPDEST PUSH1 0x0 DUP1 REVERT JUMPDEST PUSH1 0x0 DUP1 REVERT JUMPDEST PUSH2 0x1945 DUP2 PUSH2 0x18F4 JUMP JUMPDEST DUP2 EQ PUSH2 0x1950 JUMPI PUSH1 0x0 DUP1 REVERT JUMPDEST POP JUMP JUMPDEST PUSH1 0x0 DUP2 CALLDATALOAD SWAP1 POP PUSH2 0x1962 DUP2 PUSH2 0x193C JUMP JUMPDEST SWAP3 SWAP2 POP POP JUMP JUMPDEST PUSH1 0x0 PUSH20 0xFFFFFFFFFFFFFFFFFFFFFFFFFFFFFFFFFFFFFFFF DUP3 AND SWAP1 POP SWAP2 SWAP1 POP JUMP JUMPDEST PUSH1 0x0 PUSH2 0x1993 DUP3 PUSH2 0x1968 JUMP JUMPDEST SWAP1 POP SWAP2 SWAP1 POP JUMP JUMPDEST PUSH2 0x19A3 DUP2 PUSH2 0x1988 JUMP JUMPDEST DUP2 EQ PUSH2 0x19AE JUMPI PUSH1 0x0 DUP1 REVERT JUMPDEST POP JUMP JUMPDEST PUSH1 0x0 DUP2 CALLDATALOAD SWAP1 POP PUSH2 0x19C0 DUP2 PUSH2 0x199A JUMP JUMPDEST SWAP3 SWAP2 POP POP JUMP JUMPDEST PUSH1 0x0 DUP1 PUSH1 0x40 DUP4 DUP6 SUB SLT ISZERO PUSH2 0x19DD JUMPI PUSH2 0x19DC PUSH2 0x1932 JUMP JUMPDEST JUMPDEST PUSH1 0x0 PUSH2 0x19EB DUP6 DUP3 DUP7 ADD PUSH2 0x1953 JUMP JUMPDEST SWAP3 POP POP PUSH1 0x20 PUSH2 0x19FC DUP6 DUP3 DUP7 ADD PUSH2 0x19B1 JUMP JUMPDEST SWAP2 POP POP SWAP3 POP SWAP3 SWAP1 POP JUMP JUMPDEST PUSH1 0x0 DUP2 ISZERO ISZERO SWAP1 POP SWAP2 SWAP1 POP JUMP JUMPDEST PUSH2 0x1A1B DUP2 PUSH2 0x1A06 JUMP JUMPDEST DUP3 MSTORE POP POP JUMP JUMPDEST PUSH1 0x0 PUSH1 0x20 DUP3 ADD SWAP1 POP PUSH2 0x1A36 PUSH1 0x0 DUP4 ADD DUP5 PUSH2 0x1A12 JUMP JUMPDEST SWAP3 SWAP2 POP POP JUMP JUMPDEST PUSH1 0x0 PUSH1 0x20 DUP3 DUP5 SUB SLT ISZERO PUSH2 0x1A52 JUMPI PUSH2 0x1A51 PUSH2 0x1932 JUMP JUMPDEST JUMPDEST PUSH1 0x0 PUSH2 0x1A60 DUP5 DUP3 DUP6 ADD PUSH2 0x1953 JUMP JUMPDEST SWAP2 POP POP SWAP3 SWAP2 POP POP JUMP JUMPDEST PUSH1 0x0 DUP2 MLOAD SWAP1 POP SWAP2 SWAP1 POP JUMP JUMPDEST PUSH1 0x0 DUP3 DUP3 MSTORE PUSH1 0x20 DUP3 ADD SWAP1 POP SWAP3 SWAP2 POP POP JUMP JUMPDEST PUSH1 0x0 JUMPDEST DUP4 DUP2 LT ISZERO PUSH2 0x1AA3 JUMPI DUP1 DUP3 ADD MLOAD DUP2 DUP5 ADD MSTORE PUSH1 0x20 DUP2 ADD SWAP1 POP PUSH2 0x1A88 JUMP JUMPDEST PUSH1 0x0 DUP5 DUP5 ADD MSTORE POP POP POP POP JUMP JUMPDEST PUSH1 0x0 PUSH1 0x1F NOT PUSH1 0x1F DUP4 ADD AND SWAP1 POP SWAP2 SWAP1 POP JUMP JUMPDEST PUSH1 0x0 PUSH2 0x1ACB DUP3 PUSH2 0x1A69 JUMP JUMPDEST PUSH2 0x1AD5 DUP2 DUP6 PUSH2 0x1A74 JUMP JUMPDEST SWAP4 POP PUSH2 0x1AE5 DUP2 DUP6 PUSH1 0x20 DUP7 ADD PUSH2 0x1A85 JUMP JUMPDEST PUSH2 0x1AEE DUP2 PUSH2 0x1AAF JUMP JUMPDEST DUP5 ADD SWAP2 POP POP SWAP3 SWAP2 POP POP JUMP JUMPDEST PUSH1 0x0 PUSH1 0x40 DUP3 ADD SWAP1 POP DUP2 DUP2 SUB PUSH1 0x0 DUP4 ADD MSTORE PUSH2 0x1B13 DUP2 DUP6 PUSH2 0x1AC0 JUMP JUMPDEST SWAP1 POP PUSH2 0x1B22 PUSH1 0x20 DUP4 ADD DUP5 PUSH2 0x1A12 JUMP JUMPDEST SWAP4 SWAP3 POP POP POP JUMP JUMPDEST PUSH2 0x1B32 DUP2 PUSH2 0x1988 JUMP JUMPDEST DUP3 MSTORE POP POP JUMP JUMPDEST PUSH1 0x0 PUSH2 0x100 DUP3 ADD SWAP1 POP DUP2 DUP2 SUB PUSH1 0x0 DUP4 ADD MSTORE PUSH2 0x1B53 DUP2 DUP12 PUSH2 0x1AC0 JUMP JUMPDEST SWAP1 POP PUSH2 0x1B62 PUSH1 0x20 DUP4 ADD DUP11 PUSH2 0x18FE JUMP JUMPDEST PUSH2 0x1B6F PUSH1 0x40 DUP4 ADD DUP10 PUSH2 0x1B29 JUMP JUMPDEST DUP2 DUP2 SUB PUSH1 0x60 DUP4 ADD MSTORE PUSH2 0x1B81 DUP2 DUP9 PUSH2 0x1AC0 JUMP JUMPDEST SWAP1 POP DUP2 DUP2 SUB PUSH1 0x80 DUP4 ADD MSTORE PUSH2 0x1B95 DUP2 DUP8 PUSH2 0x1AC0 JUMP JUMPDEST SWAP1 POP PUSH2 0x1BA4 PUSH1 0xA0 DUP4 ADD DUP7 PUSH2 0x1A12 JUMP JUMPDEST PUSH2 0x1BB1 PUSH1 0xC0 DUP4 ADD DUP6 PUSH2 0x1B29 JUMP JUMPDEST PUSH2 0x1BBE PUSH1 0xE0 DUP4 ADD DUP5 PUSH2 0x1A12 JUMP JUMPDEST SWAP10 SWAP9 POP POP POP POP POP POP POP POP POP JUMP JUMPDEST PUSH1 0x0 DUP1 REVERT JUMPDEST PUSH32 0x4E487B7100000000000000000000000000000000000000000000000000000000 PUSH1 0x0 MSTORE PUSH1 0x41 PUSH1 0x4 MSTORE PUSH1 0x24 PUSH1 0x0 REVERT JUMPDEST PUSH2 0x1C08 DUP3 PUSH2 0x1AAF JUMP JUMPDEST DUP2 ADD DUP2 DUP2 LT PUSH8 0xFFFFFFFFFFFFFFFF DUP3 GT OR ISZERO PUSH2 0x1C27 JUMPI PUSH2 0x1C26 PUSH2 0x1BD0 JUMP JUMPDEST JUMPDEST DUP1 PUSH1 0x40 MSTORE POP POP POP JUMP JUMPDEST PUSH1 0x0 PUSH2 0x1C3A PUSH2 0x1928 JUMP JUMPDEST SWAP1 POP PUSH2 0x1C46 DUP3 DUP3 PUSH2 0x1BFF JUMP JUMPDEST SWAP2 SWAP1 POP JUMP JUMPDEST PUSH1 0x0 PUSH8 0xFFFFFFFFFFFFFFFF DUP3 GT ISZERO PUSH2 0x1C66 JUMPI PUSH2 0x1C65 PUSH2 0x1BD0 JUMP JUMPDEST JUMPDEST PUSH1 0x20 DUP3 MUL SWAP1 POP PUSH1 0x20 DUP2 ADD SWAP1 POP SWAP2 SWAP1 POP JUMP JUMPDEST PUSH1 0x0 DUP1 REVERT JUMPDEST PUSH1 0x0 PUSH2 0x1C8F PUSH2 0x1C8A DUP5 PUSH2 0x1C4B JUMP JUMPDEST PUSH2 0x1C30 JUMP JUMPDEST SWAP1 POP DUP1 DUP4 DUP3 MSTORE PUSH1 0x20 DUP3 ADD SWAP1 POP PUSH1 0x20 DUP5 MUL DUP4 ADD DUP6 DUP2 GT ISZERO PUSH2 0x1CB2 JUMPI PUSH2 0x1CB1 PUSH2 0x1C77 JUMP JUMPDEST JUMPDEST DUP4 JUMPDEST DUP2 DUP2 LT ISZERO PUSH2 0x1CDB JUMPI DUP1 PUSH2 0x1CC7 DUP9 DUP3 PUSH2 0x19B1 JUMP JUMPDEST DUP5 MSTORE PUSH1 0x20 DUP5 ADD SWAP4 POP POP PUSH1 0x20 DUP2 ADD SWAP1 POP PUSH2 0x1CB4 JUMP JUMPDEST POP POP POP SWAP4 SWAP3 POP POP POP JUMP JUMPDEST PUSH1 0x0 DUP3 PUSH1 0x1F DUP4 ADD SLT PUSH2 0x1CFA JUMPI PUSH2 0x1CF9 PUSH2 0x1BCB JUMP JUMPDEST JUMPDEST DUP2 CALLDATALOAD PUSH2 0x1D0A DUP5 DUP3 PUSH1 0x20 DUP7 ADD PUSH2 0x1C7C JUMP JUMPDEST SWAP2 POP POP SWAP3 SWAP2 POP POP JUMP JUMPDEST PUSH1 0x0 DUP1 REVERT JUMPDEST PUSH1 0x0 PUSH8 0xFFFFFFFFFFFFFFFF DUP3 GT ISZERO PUSH2 0x1D33 JUMPI PUSH2 0x1D32 PUSH2 0x1BD0 JUMP JUMPDEST JUMPDEST PUSH2 0x1D3C DUP3 PUSH2 0x1AAF JUMP JUMPDEST SWAP1 POP PUSH1 0x20 DUP2 ADD SWAP1 POP SWAP2 SWAP1 POP JUMP JUMPDEST DUP3 DUP2 DUP4 CALLDATACOPY PUSH1 0x0 DUP4 DUP4 ADD MSTORE POP POP POP JUMP JUMPDEST PUSH1 0x0 PUSH2 0x1D6B PUSH2 0x1D66 DUP5 PUSH2 0x1D18 JUMP JUMPDEST PUSH2 0x1C30 JUMP JUMPDEST SWAP1 POP DUP3 DUP2 MSTORE PUSH1 0x20 DUP2 ADD DUP5 DUP5 DUP5 ADD GT ISZERO PUSH2 0x1D87 JUMPI PUSH2 0x1D86 PUSH2 0x1D13 JUMP JUMPDEST JUMPDEST PUSH2 0x1D92 DUP5 DUP3 DUP6 PUSH2 0x1D49 JUMP JUMPDEST POP SWAP4 SWAP3 POP POP POP JUMP JUMPDEST PUSH1 0x0 DUP3 PUSH1 0x1F DUP4 ADD SLT PUSH2 0x1DAF JUMPI PUSH2 0x1DAE PUSH2 0x1BCB JUMP JUMPDEST JUMPDEST DUP2 CALLDATALOAD PUSH2 0x1DBF DUP5 DUP3 PUSH1 0x20 DUP7 ADD PUSH2 0x1D58 JUMP JUMPDEST SWAP2 POP POP SWAP3 SWAP2 POP POP JUMP JUMPDEST PUSH1 0x0 DUP1 PUSH1 0x0 PUSH1 0x60 DUP5 DUP7 SUB SLT ISZERO PUSH2 0x1DE1 JUMPI PUSH2 0x1DE0 PUSH2 0x1932 JUMP JUMPDEST JUMPDEST PUSH1 0x0 PUSH2 0x1DEF DUP7 DUP3 DUP8 ADD PUSH2 0x1953 JUMP JUMPDEST SWAP4 POP POP PUSH1 0x20 DUP5 ADD CALLDATALOAD PUSH8 0xFFFFFFFFFFFFFFFF DUP2 GT ISZERO PUSH2 0x1E10 JUMPI PUSH2 0x1E0F PUSH2 0x1937 JUMP JUMPDEST JUMPDEST PUSH2 0x1E1C DUP7 DUP3 DUP8 ADD PUSH2 0x1CE5 JUMP JUMPDEST SWAP3 POP POP PUSH1 0x40 DUP5 ADD CALLDATALOAD PUSH8 0xFFFFFFFFFFFFFFFF DUP2 GT ISZERO PUSH2 0x1E3D JUMPI PUSH2 0x1E3C PUSH2 0x1937 JUMP JUMPDEST JUMPDEST PUSH2 0x1E49 DUP7 DUP3 DUP8 ADD PUSH2 0x1D9A JUMP JUMPDEST SWAP2 POP POP SWAP3 POP SWAP3 POP SWAP3 JUMP JUMPDEST PUSH1 0x0 PUSH1 0x20 DUP3 ADD SWAP1 POP PUSH2 0x1E68 PUSH1 0x0 DUP4 ADD DUP5 PUSH2 0x1B29 JUMP JUMPDEST SWAP3 SWAP2 POP POP JUMP JUMPDEST PUSH1 0x0 DUP2 MLOAD SWAP1 POP SWAP2 SWAP1 POP JUMP JUMPDEST PUSH1 0x0 DUP3 DUP3 MSTORE PUSH1 0x20 DUP3 ADD SWAP1 POP SWAP3 SWAP2 POP POP JUMP JUMPDEST PUSH1 0x0 DUP2 SWAP1 POP PUSH1 0x20 DUP3 ADD SWAP1 POP SWAP2 SWAP1 POP JUMP JUMPDEST PUSH2 0x1EA3 DUP2 PUSH2 0x18F4 JUMP JUMPDEST DUP3 MSTORE POP POP JUMP JUMPDEST PUSH1 0x0 DUP3 DUP3 MSTORE PUSH1 0x20 DUP3 ADD SWAP1 POP SWAP3 SWAP2 POP POP JUMP JUMPDEST PUSH1 0x0 PUSH2 0x1EC5 DUP3 PUSH2 0x1A69 JUMP JUMPDEST PUSH2 0x1ECF DUP2 DUP6 PUSH2 0x1EA9 JUMP JUMPDEST SWAP4 POP PUSH2 0x1EDF DUP2 DUP6 PUSH1 0x20 DUP7 ADD PUSH2 0x1A85 JUMP JUMPDEST PUSH2 0x1EE8 DUP2 PUSH2 0x1AAF JUMP JUMPDEST DUP5 ADD SWAP2 POP POP SWAP3 SWAP2 POP POP JUMP JUMPDEST PUSH2 0x1EFC DUP2 PUSH2 0x1988 JUMP JUMPDEST DUP3 MSTORE POP POP JUMP JUMPDEST PUSH1 0x0 DUP2 MLOAD SWAP1 POP SWAP2 SWAP1 POP JUMP JUMPDEST PUSH1 0x0 DUP3 DUP3 MSTORE PUSH1 0x20 DUP3 ADD SWAP1 POP SWAP3 SWAP2 POP POP JUMP JUMPDEST PUSH1 0x0 DUP2 SWAP1 POP PUSH1 0x20 DUP3 ADD SWAP1 POP SWAP2 SWAP1 POP JUMP JUMPDEST PUSH1 0x0 PUSH2 0x1F3A DUP4 DUP4 PUSH2 0x1EBA JUMP JUMPDEST SWAP1 POP SWAP3 SWAP2 POP POP JUMP JUMPDEST PUSH1 0x0 PUSH1 0x20 DUP3 ADD SWAP1 POP SWAP2 SWAP1 POP JUMP JUMPDEST PUSH1 0x0 PUSH2 0x1F5A DUP3 PUSH2 0x1F02 JUMP JUMPDEST PUSH2 0x1F64 DUP2 DUP6 PUSH2 0x1F0D JUMP JUMPDEST SWAP4 POP DUP4 PUSH1 0x20 DUP3 MUL DUP6 ADD PUSH2 0x1F76 DUP6 PUSH2 0x1F1E JUMP JUMPDEST DUP1 PUSH1 0x0 JUMPDEST DUP6 DUP2 LT ISZERO PUSH2 0x1FB2 JUMPI DUP5 DUP5 SUB DUP10 MSTORE DUP2 MLOAD PUSH2 0x1F93 DUP6 DUP3 PUSH2 0x1F2E JUMP JUMPDEST SWAP5 POP PUSH2 0x1F9E DUP4 PUSH2 0x1F42 JUMP JUMPDEST SWAP3 POP PUSH1 0x20 DUP11 ADD SWAP10 POP POP PUSH1 0x1 DUP2 ADD SWAP1 POP PUSH2 0x1F7A JUMP JUMPDEST POP DUP3 SWAP8 POP DUP8 SWAP6 POP POP POP POP POP POP SWAP3 SWAP2 POP POP JUMP JUMPDEST PUSH2 0x1FCD DUP2 PUSH2 0x1A06 JUMP JUMPDEST DUP3 MSTORE POP POP JUMP JUMPDEST PUSH1 0x0 PUSH2 0x140 DUP4 ADD PUSH1 0x0 DUP4 ADD MLOAD PUSH2 0x1FEC PUSH1 0x0 DUP7 ADD DUP3 PUSH2 0x1E9A JUMP JUMPDEST POP PUSH1 0x20 DUP4 ADD MLOAD DUP5 DUP3 SUB PUSH1 0x20 DUP7 ADD MSTORE PUSH2 0x2004 DUP3 DUP3 PUSH2 0x1EBA JUMP JUMPDEST SWAP2 POP POP PUSH1 0x40 DUP4 ADD MLOAD PUSH2 0x2019 PUSH1 0x40 DUP7 ADD DUP3 PUSH2 0x1E9A JUMP JUMPDEST POP PUSH1 0x60 DUP4 ADD MLOAD PUSH2 0x202C PUSH1 0x60 DUP7 ADD DUP3 PUSH2 0x1EF3 JUMP JUMPDEST POP PUSH1 0x80 DUP4 ADD MLOAD DUP5 DUP3 SUB PUSH1 0x80 DUP7 ADD MSTORE PUSH2 0x2044 DUP3 DUP3 PUSH2 0x1EBA JUMP JUMPDEST SWAP2 POP POP PUSH1 0xA0 DUP4 ADD MLOAD DUP5 DUP3 SUB PUSH1 0xA0 DUP7 ADD MSTORE PUSH2 0x205E DUP3 DUP3 PUSH2 0x1EBA JUMP JUMPDEST SWAP2 POP POP PUSH1 0xC0 DUP4 ADD MLOAD DUP5 DUP3 SUB PUSH1 0xC0 DUP7 ADD MSTORE PUSH2 0x2078 DUP3 DUP3 PUSH2 0x1F4F JUMP JUMPDEST SWAP2 POP POP PUSH1 0xE0 DUP4 ADD MLOAD PUSH2 0x208D PUSH1 0xE0 DUP7 ADD DUP3 PUSH2 0x1FC4 JUMP JUMPDEST POP PUSH2 0x100 DUP4 ADD MLOAD PUSH2 0x20A2 PUSH2 0x100 DUP7 ADD DUP3 PUSH2 0x1EF3 JUMP JUMPDEST POP PUSH2 0x120 DUP4 ADD MLOAD PUSH2 0x20B7 PUSH2 0x120 DUP7 ADD DUP3 PUSH2 0x1FC4 JUMP JUMPDEST POP DUP1 SWAP2 POP POP SWAP3 SWAP2 POP POP JUMP JUMPDEST PUSH1 0x0 PUSH2 0x20CE DUP4 DUP4 PUSH2 0x1FD3 JUMP JUMPDEST SWAP1 POP SWAP3 SWAP2 POP POP JUMP JUMPDEST PUSH1 0x0 PUSH1 0x20 DUP3 ADD SWAP1 POP SWAP2 SWAP1 POP JUMP JUMPDEST PUSH1 0x0 PUSH2 0x20EE DUP3 PUSH2 0x1E6E JUMP JUMPDEST PUSH2 0x20F8 DUP2 DUP6 PUSH2 0x1E79 JUMP JUMPDEST SWAP4 POP DUP4 PUSH1 0x20 DUP3 MUL DUP6 ADD PUSH2 0x210A DUP6 PUSH2 0x1E8A JUMP JUMPDEST DUP1 PUSH1 0x0 JUMPDEST DUP6 DUP2 LT ISZERO PUSH2 0x2146 JUMPI DUP5 DUP5 SUB DUP10 MSTORE DUP2 MLOAD PUSH2 0x2127 DUP6 DUP3 PUSH2 0x20C2 JUMP JUMPDEST SWAP5 POP PUSH2 0x2132 DUP4 PUSH2 0x20D6 JUMP JUMPDEST SWAP3 POP PUSH1 0x20 DUP11 ADD SWAP10 POP POP PUSH1 0x1 DUP2 ADD SWAP1 POP PUSH2 0x210E JUMP JUMPDEST POP DUP3 SWAP8 POP DUP8 SWAP6 POP POP POP POP POP POP SWAP3 SWAP2 POP POP JUMP JUMPDEST PUSH1 0x0 PUSH1 0x20 DUP3 ADD SWAP1 POP DUP2 DUP2 SUB PUSH1 0x0 DUP4 ADD MSTORE PUSH2 0x2172 DUP2 DUP5 PUSH2 0x20E3 JUMP JUMPDEST SWAP1 POP SWAP3 SWAP2 POP POP JUMP JUMPDEST PUSH1 0x0 DUP2 MLOAD SWAP1 POP SWAP2 SWAP1 POP JUMP JUMPDEST PUSH1 0x0 DUP3 DUP3 MSTORE PUSH1 0x20 DUP3 ADD SWAP1 POP SWAP3 SWAP2 POP POP JUMP JUMPDEST PUSH1 0x0 DUP2 SWAP1 POP PUSH1 0x20 DUP3 ADD SWAP1 POP SWAP2 SWAP1 POP JUMP JUMPDEST PUSH1 0x0 PUSH2 0x21B2 DUP4 DUP4 PUSH2 0x1EF3 JUMP JUMPDEST PUSH1 0x20 DUP4 ADD SWAP1 POP SWAP3 SWAP2 POP POP JUMP JUMPDEST PUSH1 0x0 PUSH1 0x20 DUP3 ADD SWAP1 POP SWAP2 SWAP1 POP JUMP JUMPDEST PUSH1 0x0 PUSH2 0x21D6 DUP3 PUSH2 0x217A JUMP JUMPDEST PUSH2 0x21E0 DUP2 DUP6 PUSH2 0x2185 JUMP JUMPDEST SWAP4 POP PUSH2 0x21EB DUP4 PUSH2 0x2196 JUMP JUMPDEST DUP1 PUSH1 0x0 JUMPDEST DUP4 DUP2 LT ISZERO PUSH2 0x221C JUMPI DUP2 MLOAD PUSH2 0x2203 DUP9 DUP3 PUSH2 0x21A6 JUMP JUMPDEST SWAP8 POP PUSH2 0x220E DUP4 PUSH2 0x21BE JUMP JUMPDEST SWAP3 POP POP PUSH1 0x1 DUP2 ADD SWAP1 POP PUSH2 0x21EF JUMP JUMPDEST POP DUP6 SWAP4 POP POP POP POP SWAP3 SWAP2 POP POP JUMP JUMPDEST PUSH1 0x0 PUSH1 0x20 DUP3 ADD SWAP1 POP DUP2 DUP2 SUB PUSH1 0x0 DUP4 ADD MSTORE PUSH2 0x2243 DUP2 DUP5 PUSH2 0x21CB JUMP JUMPDEST SWAP1 POP SWAP3 SWAP2 POP POP JUMP JUMPDEST PUSH1 0x0 PUSH8 0xFFFFFFFFFFFFFFFF DUP3 GT ISZERO PUSH2 0x2266 JUMPI PUSH2 0x2265 PUSH2 0x1BD0 JUMP JUMPDEST JUMPDEST PUSH1 0x20 DUP3 MUL SWAP1 POP PUSH1 0x20 DUP2 ADD SWAP1 POP SWAP2 SWAP1 POP JUMP JUMPDEST PUSH1 0x0 PUSH2 0x228A PUSH2 0x2285 DUP5 PUSH2 0x224B JUMP JUMPDEST PUSH2 0x1C30 JUMP JUMPDEST SWAP1 POP DUP1 DUP4 DUP3 MSTORE PUSH1 0x20 DUP3 ADD SWAP1 POP PUSH1 0x20 DUP5 MUL DUP4 ADD DUP6 DUP2 GT ISZERO PUSH2 0x22AD JUMPI PUSH2 0x22AC PUSH2 0x1C77 JUMP JUMPDEST JUMPDEST DUP4 JUMPDEST DUP2 DUP2 LT ISZERO PUSH2 0x22F4 JUMPI DUP1 CALLDATALOAD PUSH8 0xFFFFFFFFFFFFFFFF DUP2 GT ISZERO PUSH2 0x22D2 JUMPI PUSH2 0x22D1 PUSH2 0x1BCB JUMP JUMPDEST JUMPDEST DUP1 DUP7 ADD PUSH2 0x22DF DUP10 DUP3 PUSH2 0x1D9A JUMP JUMPDEST DUP6 MSTORE PUSH1 0x20 DUP6 ADD SWAP5 POP POP POP PUSH1 0x20 DUP2 ADD SWAP1 POP PUSH2 0x22AF JUMP JUMPDEST POP POP POP SWAP4 SWAP3 POP POP POP JUMP JUMPDEST PUSH1 0x0 DUP3 PUSH1 0x1F DUP4 ADD SLT PUSH2 0x2313 JUMPI PUSH2 0x2312 PUSH2 0x1BCB JUMP JUMPDEST JUMPDEST DUP2 CALLDATALOAD PUSH2 0x2323 DUP5 DUP3 PUSH1 0x20 DUP7 ADD PUSH2 0x2277 JUMP JUMPDEST SWAP2 POP POP SWAP3 SWAP2 POP POP JUMP JUMPDEST PUSH1 0x0 DUP1 PUSH1 0x0 DUP1 PUSH1 0x0 DUP1 PUSH1 0xC0 DUP8 DUP10 SUB SLT ISZERO PUSH2 0x2349 JUMPI PUSH2 0x2348 PUSH2 0x1932 JUMP JUMPDEST JUMPDEST PUSH1 0x0 DUP8 ADD CALLDATALOAD PUSH8 0xFFFFFFFFFFFFFFFF DUP2 GT ISZERO PUSH2 0x2367 JUMPI PUSH2 0x2366 PUSH2 0x1937 JUMP JUMPDEST JUMPDEST PUSH2 0x2373 DUP10 DUP3 DUP11 ADD PUSH2 0x1D9A JUMP JUMPDEST SWAP7 POP POP PUSH1 0x20 PUSH2 0x2384 DUP10 DUP3 DUP11 ADD PUSH2 0x1953 JUMP JUMPDEST SWAP6 POP POP PUSH1 0x40 PUSH2 0x2395 DUP10 DUP3 DUP11 ADD PUSH2 0x19B1 JUMP JUMPDEST SWAP5 POP POP PUSH1 0x60 DUP8 ADD CALLDATALOAD PUSH8 0xFFFFFFFFFFFFFFFF DUP2 GT ISZERO PUSH2 0x23B6 JUMPI PUSH2 0x23B5 PUSH2 0x1937 JUMP JUMPDEST JUMPDEST PUSH2 0x23C2 DUP10 DUP3 DUP11 ADD PUSH2 0x1D9A JUMP JUMPDEST SWAP4 POP POP PUSH1 0x80 DUP8 ADD CALLDATALOAD PUSH8 0xFFFFFFFFFFFFFFFF DUP2 GT ISZERO PUSH2 0x23E3 JUMPI PUSH2 0x23E2 PUSH2 0x1937 JUMP JUMPDEST JUMPDEST PUSH2 0x23EF DUP10 DUP3 DUP11 ADD PUSH2 0x1D9A JUMP JUMPDEST SWAP3 POP POP PUSH1 0xA0 DUP8 ADD CALLDATALOAD PUSH8 0xFFFFFFFFFFFFFFFF DUP2 GT ISZERO PUSH2 0x2410 JUMPI PUSH2 0x240F PUSH2 0x1937 JUMP JUMPDEST JUMPDEST PUSH2 0x241C DUP10 DUP3 DUP11 ADD PUSH2 0x22FE JUMP JUMPDEST SWAP2 POP POP SWAP3 SWAP6 POP SWAP3 SWAP6 POP SWAP3 SWAP6 JUMP JUMPDEST PUSH1 0x0 DUP1 PUSH1 0x40 DUP4 DUP6 SUB SLT ISZERO PUSH2 0x2440 JUMPI PUSH2 0x243F PUSH2 0x1932 JUMP JUMPDEST JUMPDEST PUSH1 0x0 PUSH2 0x244E DUP6 DUP3 DUP7 ADD PUSH2 0x1953 JUMP JUMPDEST SWAP3 POP POP PUSH1 0x20 DUP4 ADD CALLDATALOAD PUSH8 0xFFFFFFFFFFFFFFFF DUP2 GT ISZERO PUSH2 0x246F JUMPI PUSH2 0x246E PUSH2 0x1937 JUMP JUMPDEST JUMPDEST PUSH2 0x247B DUP6 DUP3 DUP7 ADD PUSH2 0x1CE5 JUMP JUMPDEST SWAP2 POP POP SWAP3 POP SWAP3 SWAP1 POP JUMP JUMPDEST PUSH1 0x0 PUSH1 0x20 DUP3 DUP5 SUB SLT ISZERO PUSH2 0x249B JUMPI PUSH2 0x249A PUSH2 0x1932 JUMP JUMPDEST JUMPDEST PUSH1 0x0 PUSH2 0x24A9 DUP5 DUP3 DUP6 ADD PUSH2 0x19B1 JUMP JUMPDEST SWAP2 POP POP SWAP3 SWAP2 POP POP JUMP JUMPDEST PUSH32 0x4E487B7100000000000000000000000000000000000000000000000000000000 PUSH1 0x0 MSTORE PUSH1 0x32 PUSH1 0x4 MSTORE PUSH1 0x24 PUSH1 0x0 REVERT JUMPDEST PUSH32 0x4E487B7100000000000000000000000000000000000000000000000000000000 PUSH1 0x0 MSTORE PUSH1 0x22 PUSH1 0x4 MSTORE PUSH1 0x24 PUSH1 0x0 REVERT JUMPDEST PUSH1 0x0 PUSH1 0x2 DUP3 DIV SWAP1 POP PUSH1 0x1 DUP3 AND DUP1 PUSH2 0x2528 JUMPI PUSH1 0x7F DUP3 AND SWAP2 POP JUMPDEST PUSH1 0x20 DUP3 LT DUP2 SUB PUSH2 0x253B JUMPI PUSH2 0x253A PUSH2 0x24E1 JUMP JUMPDEST JUMPDEST POP SWAP2 SWAP1 POP JUMP JUMPDEST PUSH32 0x5375622D6F7267616E697A6174696F6E20616C7265616479206578697374732E PUSH1 0x0 DUP3 ADD MSTORE POP JUMP JUMPDEST PUSH1 0x0 PUSH2 0x2577 PUSH1 0x20 DUP4 PUSH2 0x1A74 JUMP JUMPDEST SWAP2 POP PUSH2 0x2582 DUP3 PUSH2 0x2541 JUMP JUMPDEST PUSH1 0x20 DUP3 ADD SWAP1 POP SWAP2 SWAP1 POP JUMP JUMPDEST PUSH1 0x0 PUSH1 0x20 DUP3 ADD SWAP1 POP DUP2 DUP2 SUB PUSH1 0x0 DUP4 ADD MSTORE PUSH2 0x25A6 DUP2 PUSH2 0x256A JUMP JUMPDEST SWAP1 POP SWAP2 SWAP1 POP JUMP JUMPDEST PUSH32 0x4174206C65617374206F6E652061646D696E2069732072657175697265642E00 PUSH1 0x0 DUP3 ADD MSTORE POP JUMP JUMPDEST PUSH1 0x0 PUSH2 0x25E3 PUSH1 0x1F DUP4 PUSH2 0x1A74 JUMP JUMPDEST SWAP2 POP PUSH2 0x25EE DUP3 PUSH2 0x25AD JUMP JUMPDEST PUSH1 0x20 DUP3 ADD SWAP1 POP SWAP2 SWAP1 POP JUMP JUMPDEST PUSH1 0x0 PUSH1 0x20 DUP3 ADD SWAP1 POP DUP2 DUP2 SUB PUSH1 0x0 DUP4 ADD MSTORE PUSH2 0x2612 DUP2 PUSH2 0x25D6 JUMP JUMPDEST SWAP1 POP SWAP2 SWAP1 POP JUMP JUMPDEST PUSH1 0x0 DUP2 SWAP1 POP DUP2 PUSH1 0x0 MSTORE PUSH1 0x20 PUSH1 0x0 KECCAK256 SWAP1 POP SWAP2 SWAP1 POP JUMP JUMPDEST PUSH1 0x0 PUSH1 0x20 PUSH1 0x1F DUP4 ADD DIV SWAP1 POP SWAP2 SWAP1 POP JUMP JUMPDEST PUSH1 0x0 DUP3 DUP3 SHL SWAP1 POP SWAP3 SWAP2 POP POP JUMP JUMPDEST PUSH1 0x0 PUSH1 0x8 DUP4 MUL PUSH2 0x267B PUSH32 0xFFFFFFFFFFFFFFFFFFFFFFFFFFFFFFFFFFFFFFFFFFFFFFFFFFFFFFFFFFFFFFFF DUP3 PUSH2 0x263E JUMP JUMPDEST PUSH2 0x2685 DUP7 DUP4 PUSH2 0x263E JUMP JUMPDEST SWAP6 POP DUP1 NOT DUP5 AND SWAP4 POP DUP1 DUP7 AND DUP5 OR SWAP3 POP POP POP SWAP4 SWAP3 POP POP POP JUMP JUMPDEST PUSH1 0x0 DUP2 SWAP1 POP SWAP2 SWAP1 POP JUMP JUMPDEST PUSH1 0x0 PUSH2 0x26C2 PUSH2 0x26BD PUSH2 0x26B8 DUP5 PUSH2 0x18F4 JUMP JUMPDEST PUSH2 0x269D JUMP JUMPDEST PUSH2 0x18F4 JUMP JUMPDEST SWAP1 POP SWAP2 SWAP1 POP JUMP JUMPDEST PUSH1 0x0 DUP2 SWAP1 POP SWAP2 SWAP1 POP JUMP JUMPDEST PUSH2 0x26DC DUP4 PUSH2 0x26A7 JUMP JUMPDEST PUSH2 0x26F0 PUSH2 0x26E8 DUP3 PUSH2 0x26C9 JUMP JUMPDEST DUP5 DUP5 SLOAD PUSH2 0x264B JUMP JUMPDEST DUP3 SSTORE POP POP POP POP JUMP JUMPDEST PUSH1 0x0 SWAP1 JUMP JUMPDEST PUSH2 0x2705 PUSH2 0x26F8 JUMP JUMPDEST PUSH2 0x2710 DUP2 DUP5 DUP5 PUSH2 0x26D3 JUMP JUMPDEST POP POP POP JUMP JUMPDEST JUMPDEST DUP2 DUP2 LT ISZERO PUSH2 0x2734 JUMPI PUSH2 0x2729 PUSH1 0x0 DUP3 PUSH2 0x26FD JUMP JUMPDEST PUSH1 0x1 DUP2 ADD SWAP1 POP PUSH2 0x2716 JUMP JUMPDEST POP POP JUMP JUMPDEST PUSH1 0x1F DUP3 GT ISZERO PUSH2 0x2779 JUMPI PUSH2 0x274A DUP2 PUSH2 0x2619 JUMP JUMPDEST PUSH2 0x2753 DUP5 PUSH2 0x262E JUMP JUMPDEST DUP2 ADD PUSH1 0x20 DUP6 LT ISZERO PUSH2 0x2762 JUMPI DUP2 SWAP1 POP JUMPDEST PUSH2 0x2776 PUSH2 0x276E DUP6 PUSH2 0x262E JUMP JUMPDEST DUP4 ADD DUP3 PUSH2 0x2715 JUMP JUMPDEST POP POP JUMPDEST POP POP POP JUMP JUMPDEST PUSH1 0x0 DUP3 DUP3 SHR SWAP1 POP SWAP3 SWAP2 POP POP JUMP JUMPDEST PUSH1 0x0 PUSH2 0x279C PUSH1 0x0 NOT DUP5 PUSH1 0x8 MUL PUSH2 0x277E JUMP JUMPDEST NOT DUP1 DUP4 AND SWAP2 POP POP SWAP3 SWAP2 POP POP JUMP JUMPDEST PUSH1 0x0 PUSH2 0x27B5 DUP4 DUP4 PUSH2 0x278B JUMP JUMPDEST SWAP2 POP DUP3 PUSH1 0x2 MUL DUP3 OR SWAP1 POP SWAP3 SWAP2 POP POP JUMP JUMPDEST PUSH2 0x27CE DUP3 PUSH2 0x1A69 JUMP JUMPDEST PUSH8 0xFFFFFFFFFFFFFFFF DUP2 GT ISZERO PUSH2 0x27E7 JUMPI PUSH2 0x27E6 PUSH2 0x1BD0 JUMP JUMPDEST JUMPDEST PUSH2 0x27F1 DUP3 SLOAD PUSH2 0x2510 JUMP JUMPDEST PUSH2 0x27FC DUP3 DUP3 DUP6 PUSH2 0x2738 JUMP JUMPDEST PUSH1 0x0 PUSH1 0x20 SWAP1 POP PUSH1 0x1F DUP4 GT PUSH1 0x1 DUP2 EQ PUSH2 0x282F JUMPI PUSH1 0x0 DUP5 ISZERO PUSH2 0x281D JUMPI DUP3 DUP8 ADD MLOAD SWAP1 POP JUMPDEST PUSH2 0x2827 DUP6 DUP3 PUSH2 0x27A9 JUMP JUMPDEST DUP7 SSTORE POP PUSH2 0x288F JUMP JUMPDEST PUSH1 0x1F NOT DUP5 AND PUSH2 0x283D DUP7 PUSH2 0x2619 JUMP JUMPDEST PUSH1 0x0 JUMPDEST DUP3 DUP2 LT ISZERO PUSH2 0x2865 JUMPI DUP5 DUP10 ADD MLOAD DUP3 SSTORE PUSH1 0x1 DUP3 ADD SWAP2 POP PUSH1 0x20 DUP6 ADD SWAP5 POP PUSH1 0x20 DUP2 ADD SWAP1 POP PUSH2 0x2840 JUMP JUMPDEST DUP7 DUP4 LT ISZERO PUSH2 0x2882 JUMPI DUP5 DUP10 ADD MLOAD PUSH2 0x287E PUSH1 0x1F DUP10 AND DUP3 PUSH2 0x278B JUMP JUMPDEST DUP4 SSTORE POP JUMPDEST PUSH1 0x1 PUSH1 0x2 DUP9 MUL ADD DUP9 SSTORE POP POP POP JUMPDEST POP POP POP POP POP POP JUMP JUMPDEST PUSH1 0x0 PUSH1 0x40 DUP3 ADD SWAP1 POP DUP2 DUP2 SUB PUSH1 0x0 DUP4 ADD MSTORE PUSH2 0x28B1 DUP2 DUP6 PUSH2 0x21CB JUMP JUMPDEST SWAP1 POP DUP2 DUP2 SUB PUSH1 0x20 DUP4 ADD MSTORE PUSH2 0x28C5 DUP2 DUP5 PUSH2 0x1AC0 JUMP JUMPDEST SWAP1 POP SWAP4 SWAP3 POP POP POP JUMP JUMPDEST PUSH32 0x5375622D6F7267616E697A6174696F6E20646F6573206E6F742065786973742E PUSH1 0x0 DUP3 ADD MSTORE POP JUMP JUMPDEST PUSH1 0x0 PUSH2 0x2904 PUSH1 0x20 DUP4 PUSH2 0x1A74 JUMP JUMPDEST SWAP2 POP PUSH2 0x290F DUP3 PUSH2 0x28CE JUMP JUMPDEST PUSH1 0x20 DUP3 ADD SWAP1 POP SWAP2 SWAP1 POP JUMP JUMPDEST PUSH1 0x0 PUSH1 0x20 DUP3 ADD SWAP1 POP DUP2 DUP2 SUB PUSH1 0x0 DUP4 ADD MSTORE PUSH2 0x2933 DUP2 PUSH2 0x28F7 JUMP JUMPDEST SWAP1 POP SWAP2 SWAP1 POP JUMP JUMPDEST PUSH32 0x4E487B7100000000000000000000000000000000000000000000000000000000 PUSH1 0x0 MSTORE PUSH1 0x11 PUSH1 0x4 MSTORE PUSH1 0x24 PUSH1 0x0 REVERT JUMPDEST PUSH1 0x0 PUSH2 0x2974 DUP3 PUSH2 0x18F4 JUMP JUMPDEST SWAP2 POP PUSH32 0xFFFFFFFFFFFFFFFFFFFFFFFFFFFFFFFFFFFFFFFFFFFFFFFFFFFFFFFFFFFFFFFF DUP3 SUB PUSH2 0x29A6 JUMPI PUSH2 0x29A5 PUSH2 0x293A JUMP JUMPDEST JUMPDEST PUSH1 0x1 DUP3 ADD SWAP1 POP SWAP2 SWAP1 POP JUMP JUMPDEST PUSH32 0x436F6D706C61696E7420697320616C7265616479207265736F6C7665642E0000 PUSH1 0x0 DUP3 ADD MSTORE POP JUMP JUMPDEST PUSH1 0x0 PUSH2 0x29E7 PUSH1 0x1E DUP4 PUSH2 0x1A74 JUMP JUMPDEST SWAP2 POP PUSH2 0x29F2 DUP3 PUSH2 0x29B1 JUMP JUMPDEST PUSH1 0x20 DUP3 ADD SWAP1 POP SWAP2 SWAP1 POP JUMP JUMPDEST PUSH1 0x0 PUSH1 0x20 DUP3 ADD SWAP1 POP DUP2 DUP2 SUB PUSH1 0x0 DUP4 ADD MSTORE PUSH2 0x2A16 DUP2 PUSH2 0x29DA JUMP JUMPDEST SWAP1 POP SWAP2 SWAP1 POP JUMP JUMPDEST PUSH32 0x43616C6C6572206973206E6F7420616E2061646D696E206F6620746865207265 PUSH1 0x0 DUP3 ADD MSTORE PUSH32 0x6C6576616E74207375622D6F7267616E697A6174696F6E2E0000000000000000 PUSH1 0x20 DUP3 ADD MSTORE POP JUMP JUMPDEST PUSH1 0x0 PUSH2 0x2A79 PUSH1 0x38 DUP4 PUSH2 0x1A74 JUMP JUMPDEST SWAP2 POP PUSH2 0x2A84 DUP3 PUSH2 0x2A1D JUMP JUMPDEST PUSH1 0x40 DUP3 ADD SWAP1 POP SWAP2 SWAP1 POP JUMP JUMPDEST PUSH1 0x0 PUSH1 0x20 DUP3 ADD SWAP1 POP DUP2 DUP2 SUB PUSH1 0x0 DUP4 ADD MSTORE PUSH2 0x2AA8 DUP2 PUSH2 0x2A6C JUMP JUMPDEST SWAP1 POP SWAP2 SWAP1 POP JUMP INVALID LOG2 PUSH5 0x6970667358 0x22 SLT KECCAK256 0xAC SELFDESTRUCT 0xEC 0xBF 0xEF ADDRESS DUP4 SUB 0xDB JUMPDEST TLOAD DUP8 JUMPI PUSH2 0xC9FC PUSH25 0x50A2414B8693E574DCF3885969C3E264736F6C634300081800 CALLER "},"methodIdentifiers":{"complaintCounter()":"0ed74b62","complaints(uint256)":"7e69e912","createSubOrganization(uint256,address[],string)":"87e3d46d","fileFoundComplaint(string,uint256,address,string,string,string[])":"9d1b0076","fileLostComplaint(string,uint256,address,string,string,string[])":"9e10364d","getAdmins(uint256)":"95281648","isAdmin(uint256,address)":"146a2911","listAllComplaints()":"9350e08c","owner()":"8da5cb5b","renounceOwnership()":"715018a6","resolveComplaint(uint256)":"f760e144","subOrganizations(uint256)":"68a5b28e","transferOwnership(address)":"f2fde38b","updateSubOrganizationAdmins(uint256,address[])":"f239ee53"}}}}}