{
  "_format": "hh-sol-artifact-1",
  "contractName": "LostAndFound",
  "sourceName": "contracts/LostAndFound.sol",
  "abi": [
    {
      "inputs": [],
      "stateMutability": "nonpayable",
      "type": "constructor"
    },
    {
      "inputs": [
        {
          "internalType": "address",
          "name": "owner",
          "type": "address"
        }
      ],
      "name": "OwnableInvalidOwner",
      "type": "error"
    },
    {
      "inputs": [
        {
          "internalType": "address",
          "name": "account",
          "type": "address"
        }
      ],
      "name": "OwnableUnauthorizedAccount",
      "type": "error"
    },
    {
      "anonymous": false,
      "inputs": [
        {
          "indexed": true,
          "internalType": "uint256",
          "name": "complaintId",
          "type": "uint256"
        },
        {
          "indexed": false,
          "internalType": "bool",
          "name": "isLost",
          "type": "bool"
        }
      ],
      "name": "ComplaintFiled",
      "type": "event"
    },
    {
      "anonymous": false,
      "inputs": [
        {
          "indexed": true,
          "internalType": "uint256",
          "name": "complaintId",
          "type": "uint256"
        }
      ],
      "name": "ComplaintResolved",
      "type": "event"
    },
    {
      "anonymous": false,
      "inputs": [
        {
          "indexed": true,
          "internalType": "address",
          "name": "previousOwner",
          "type": "address"
        },
        {
          "indexed": true,
          "internalType": "address",
          "name": "newOwner",
          "type": "address"
        }
      ],
      "name": "OwnershipTransferred",
      "type": "event"
    },
    {
      "anonymous": false,
      "inputs": [
        {
          "indexed": true,
          "internalType": "uint256",
          "name": "subOrgId",
          "type": "uint256"
        },
        {
          "indexed": false,
          "internalType": "address[]",
          "name": "newAdmins",
          "type": "address[]"
        }
      ],
      "name": "SubOrganizationAdminsUpdated",
      "type": "event"
    },
    {
      "anonymous": false,
      "inputs": [
        {
          "indexed": true,
          "internalType": "uint256",
          "name": "subOrgId",
          "type": "uint256"
        },
        {
          "indexed": false,
          "internalType": "address[]",
          "name": "admins",
          "type": "address[]"
        },
        {
          "indexed": false,
          "internalType": "string",
          "name": "name",
          "type": "string"
        }
      ],
      "name": "SubOrganizationCreated",
      "type": "event"
    },
    {
      "inputs": [],
      "name": "complaintCounter",
      "outputs": [
        {
          "internalType": "uint256",
          "name": "",
          "type": "uint256"
        }
      ],
      "stateMutability": "view",
      "type": "function"
    },
    {
      "inputs": [
        {
          "internalType": "uint256",
          "name": "",
          "type": "uint256"
        }
      ],
      "name": "complaints",
      "outputs": [
        {
          "internalType": "string",
          "name": "name",
          "type": "string"
        },
        {
          "internalType": "uint256",
          "name": "subOrgId",
          "type": "uint256"
        },
        {
          "internalType": "address",
          "name": "walletAddress",
          "type": "address"
        },
        {
          "internalType": "string",
          "name": "email",
          "type": "string"
        },
        {
          "internalType": "string",
          "name": "description",
          "type": "string"
        },
        {
          "internalType": "bool",
          "name": "isResolved",
          "type": "bool"
        },
        {
          "internalType": "bool",
          "name": "isLost",
          "type": "bool"
        }
      ],
      "stateMutability": "view",
      "type": "function"
    },
    {
      "inputs": [
        {
          "internalType": "uint256",
          "name": "subOrgId",
          "type": "uint256"
        },
        {
          "internalType": "address[]",
          "name": "admins",
          "type": "address[]"
        },
        {
          "internalType": "string",
          "name": "name",
          "type": "string"
        }
      ],
      "name": "createSubOrganization",
      "outputs": [],
      "stateMutability": "nonpayable",
      "type": "function"
    },
    {
      "inputs": [
        {
          "internalType": "string",
          "name": "name",
          "type": "string"
        },
        {
          "internalType": "uint256",
          "name": "subOrgId",
          "type": "uint256"
        },
        {
          "internalType": "address",
          "name": "walletAddress",
          "type": "address"
        },
        {
          "internalType": "string",
          "name": "email",
          "type": "string"
        },
        {
          "internalType": "string",
          "name": "description",
          "type": "string"
        },
        {
          "internalType": "string[]",
          "name": "images",
          "type": "string[]"
        }
      ],
      "name": "fileFoundComplaint",
      "outputs": [],
      "stateMutability": "nonpayable",
      "type": "function"
    },
    {
      "inputs": [
        {
          "internalType": "string",
          "name": "name",
          "type": "string"
        },
        {
          "internalType": "uint256",
          "name": "subOrgId",
          "type": "uint256"
        },
        {
          "internalType": "address",
          "name": "walletAddress",
          "type": "address"
        },
        {
          "internalType": "string",
          "name": "email",
          "type": "string"
        },
        {
          "internalType": "string",
          "name": "description",
          "type": "string"
        },
        {
          "internalType": "string[]",
          "name": "images",
          "type": "string[]"
        }
      ],
      "name": "fileLostComplaint",
      "outputs": [],
      "stateMutability": "nonpayable",
      "type": "function"
    },
    {
      "inputs": [
        {
          "internalType": "uint256",
          "name": "subOrgId",
          "type": "uint256"
        }
      ],
      "name": "getAdmins",
      "outputs": [
        {
          "internalType": "address[]",
          "name": "",
          "type": "address[]"
        }
      ],
      "stateMutability": "view",
      "type": "function"
    },
    {
      "inputs": [
        {
          "internalType": "uint256",
          "name": "subOrgId",
          "type": "uint256"
        },
        {
          "internalType": "address",
          "name": "user",
          "type": "address"
        }
      ],
      "name": "isAdmin",
      "outputs": [
        {
          "internalType": "bool",
          "name": "",
          "type": "bool"
        }
      ],
      "stateMutability": "view",
      "type": "function"
    },
    {
      "inputs": [
        {
          "internalType": "uint256",
          "name": "subOrgId",
          "type": "uint256"
        }
      ],
      "name": "listComplaints",
      "outputs": [
        {
          "internalType": "uint256[]",
          "name": "",
          "type": "uint256[]"
        }
      ],
      "stateMutability": "view",
      "type": "function"
    },
    {
      "inputs": [],
      "name": "owner",
      "outputs": [
        {
          "internalType": "address",
          "name": "",
          "type": "address"
        }
      ],
      "stateMutability": "view",
      "type": "function"
    },
    {
      "inputs": [],
      "name": "renounceOwnership",
      "outputs": [],
      "stateMutability": "nonpayable",
      "type": "function"
    },
    {
      "inputs": [
        {
          "internalType": "uint256",
          "name": "complaintId",
          "type": "uint256"
        }
      ],
      "name": "resolveComplaint",
      "outputs": [],
      "stateMutability": "nonpayable",
      "type": "function"
    },
    {
      "inputs": [
        {
          "internalType": "uint256",
          "name": "",
          "type": "uint256"
        }
      ],
      "name": "subOrganizations",
      "outputs": [
        {
          "internalType": "string",
          "name": "name",
          "type": "string"
        },
        {
          "internalType": "bool",
          "name": "exists",
          "type": "bool"
        }
      ],
      "stateMutability": "view",
      "type": "function"
    },
    {
      "inputs": [
        {
          "internalType": "address",
          "name": "newOwner",
          "type": "address"
        }
      ],
      "name": "transferOwnership",
      "outputs": [],
      "stateMutability": "nonpayable",
      "type": "function"
    },
    {
      "inputs": [
        {
          "internalType": "uint256",
          "name": "subOrgId",
          "type": "uint256"
        },
        {
          "internalType": "address[]",
          "name": "newAdmins",
          "type": "address[]"
        }
      ],
      "name": "updateSubOrganizationAdmins",
      "outputs": [],
      "stateMutability": "nonpayable",
      "type": "function"
    }
  ],
  "bytecode": "0x60806040523480156200001157600080fd5b5033600073ffffffffffffffffffffffffffffffffffffffff168173ffffffffffffffffffffffffffffffffffffffff1603620000885760006040517f1e4fbdf70000000000000000000000000000000000000000000000000000000081526004016200007f9190620001a9565b60405180910390fd5b6200009981620000a060201b60201c565b50620001c6565b60008060009054906101000a900473ffffffffffffffffffffffffffffffffffffffff169050816000806101000a81548173ffffffffffffffffffffffffffffffffffffffff021916908373ffffffffffffffffffffffffffffffffffffffff1602179055508173ffffffffffffffffffffffffffffffffffffffff168173ffffffffffffffffffffffffffffffffffffffff167f8be0079c531659141344cd1fd0a4f28419497f9722a3daafe3b4186f6b6457e060405160405180910390a35050565b600073ffffffffffffffffffffffffffffffffffffffff82169050919050565b6000620001918262000164565b9050919050565b620001a38162000184565b82525050565b6000602082019050620001c0600083018462000198565b92915050565b6124cc80620001d66000396000f3fe608060405234801561001057600080fd5b50600436106100ea5760003560e01c80638da5cb5b1161008c5780639e10364d116100665780639e10364d14610264578063f239ee5314610280578063f2fde38b1461029c578063f760e144146102b8576100ea565b80638da5cb5b146101fa57806395281648146102185780639d1b007614610248576100ea565b806368a5b28e116100c857806368a5b28e1461016d578063715018a61461019e5780637e69e912146101a857806387e3d46d146101de576100ea565b806303cb7cee146100ef5780630ed74b621461011f578063146a29111461013d575b600080fd5b61010960048036038101906101049190611551565b6102d4565b604051610116919061163c565b60405180910390f35b61012761049b565b604051610134919061166d565b60405180910390f35b610157600480360381019061015291906116e6565b6104a1565b6040516101649190611741565b60405180910390f35b61018760048036038101906101829190611551565b6105f1565b6040516101959291906117ec565b60405180910390f35b6101a66106aa565b005b6101c260048036038101906101bd9190611551565b6106be565b6040516101d5979695949392919061182b565b60405180910390f35b6101f860048036038101906101f39190611aac565b6108d2565b005b610202610a48565b60405161020f9190611b37565b60405180910390f35b610232600480360381019061022d9190611551565b610a71565b60405161023f9190611c10565b60405180910390f35b610262600480360381019061025d9190611d13565b610b78565b005b61027e60048036038101906102799190611d13565b610d94565b005b61029a60048036038101906102959190611e10565b610fb0565b005b6102b660048036038101906102b19190611e6c565b6110c6565b005b6102d260048036038101906102cd9190611551565b61114c565b005b60606001600083815260200190815260200160002060020160009054906101000a900460ff16610339576040517f08c379a000000000000000000000000000000000000000000000000000000000815260040161033090611ee5565b60405180910390fd5b600060035467ffffffffffffffff811115610357576103566118b4565b5b6040519080825280602002602001820160405280156103855781602001602082028036833780820191505090505b5090506000805b6003548110156103ef57846002600083815260200190815260200160002060010154036103e257808383815181106103c7576103c6611f05565b5b60200260200101818152505081806103de90611f63565b9250505b808060010191505061038c565b5060008167ffffffffffffffff81111561040c5761040b6118b4565b5b60405190808252806020026020018201604052801561043a5781602001602082028036833780820191505090505b50905060005b8281101561048f5783818151811061045b5761045a611f05565b5b602002602001015182828151811061047657610475611f05565b5b6020026020010181815250508080600101915050610440565b50809350505050919050565b60035481565b60006001600084815260200190815260200160002060020160009054906101000a900460ff166104d457600090506105eb565b60006001600085815260200190815260200160002060000180548060200260200160405190810160405280929190818152602001828054801561056c57602002820191906000526020600020905b8160009054906101000a900473ffffffffffffffffffffffffffffffffffffffff1673ffffffffffffffffffffffffffffffffffffffff1681526020019060010190808311610522575b5050505050905060005b81518110156105e4578373ffffffffffffffffffffffffffffffffffffffff168282815181106105a9576105a8611f05565b5b602002602001015173ffffffffffffffffffffffffffffffffffffffff16036105d7576001925050506105eb565b8080600101915050610576565b5060009150505b92915050565b600160205280600052604060002060009150905080600101805461061490611fda565b80601f016020809104026020016040519081016040528092919081815260200182805461064090611fda565b801561068d5780601f106106625761010080835404028352916020019161068d565b820191906000526020600020905b81548152906001019060200180831161067057829003601f168201915b5050505050908060020160009054906101000a900460ff16905082565b6106b2611250565b6106bc60006112d7565b565b60026020528060005260406000206000915090508060000180546106e190611fda565b80601f016020809104026020016040519081016040528092919081815260200182805461070d90611fda565b801561075a5780601f1061072f5761010080835404028352916020019161075a565b820191906000526020600020905b81548152906001019060200180831161073d57829003601f168201915b5050505050908060010154908060020160009054906101000a900473ffffffffffffffffffffffffffffffffffffffff169080600301805461079b90611fda565b80601f01602080910402602001604051908101604052809291908181526020018280546107c790611fda565b80156108145780601f106107e957610100808354040283529160200191610814565b820191906000526020600020905b8154815290600101906020018083116107f757829003601f168201915b50505050509080600401805461082990611fda565b80601f016020809104026020016040519081016040528092919081815260200182805461085590611fda565b80156108a25780601f10610877576101008083540402835291602001916108a2565b820191906000526020600020905b81548152906001019060200180831161088557829003601f168201915b5050505050908060060160009054906101000a900460ff16908060060160019054906101000a900460ff16905087565b6108da611250565b6001600084815260200190815260200160002060020160009054906101000a900460ff161561093e576040517f08c379a000000000000000000000000000000000000000000000000000000000815260040161093590612057565b60405180910390fd5b6000825111610982576040517f08c379a0000000000000000000000000000000000000000000000000000000008152600401610979906120c3565b60405180910390fd5b6040518060600160405280838152602001828152602001600115158152506001600085815260200190815260200160002060008201518160000190805190602001906109cf9291906113a3565b5060208201518160010190816109e5919061228f565b5060408201518160020160006101000a81548160ff021916908315150217905550905050827fdfe1694fcd461575a4d6a9cd0e9c32562b86e21562d074ab4d4b6daf884937808383604051610a3b929190612361565b60405180910390a2505050565b60008060009054906101000a900473ffffffffffffffffffffffffffffffffffffffff16905090565b60606001600083815260200190815260200160002060020160009054906101000a900460ff16610ad6576040517f08c379a0000000000000000000000000000000000000000000000000000000008152600401610acd90611ee5565b60405180910390fd5b60016000838152602001908152602001600020600001805480602002602001604051908101604052809291908181526020018280548015610b6c57602002820191906000526020600020905b8160009054906101000a900473ffffffffffffffffffffffffffffffffffffffff1673ffffffffffffffffffffffffffffffffffffffff1681526020019060010190808311610b22575b50505050509050919050565b6001600086815260200190815260200160002060020160009054906101000a900460ff16610bdb576040517f08c379a0000000000000000000000000000000000000000000000000000000008152600401610bd290611ee5565b60405180910390fd5b6040518061010001604052808781526020018681526020018573ffffffffffffffffffffffffffffffffffffffff168152602001848152602001838152602001828152602001600015158152602001600015158152506002600060035481526020019081526020016000206000820151816000019081610c5b919061228f565b506020820151816001015560408201518160020160006101000a81548173ffffffffffffffffffffffffffffffffffffffff021916908373ffffffffffffffffffffffffffffffffffffffff1602179055506060820151816003019081610cc2919061228f565b506080820151816004019081610cd8919061228f565b5060a0820151816005019080519060200190610cf592919061142d565b5060c08201518160060160006101000a81548160ff02191690831515021790555060e08201518160060160016101000a81548160ff0219169083151502179055509050506003547fea2b4bbe2043dda8b40628f7f530c3d2d403ab1e29aa8981d1d1d7392226d66f6000604051610d6c9190611741565b60405180910390a260036000815480929190610d8790611f63565b9190505550505050505050565b6001600086815260200190815260200160002060020160009054906101000a900460ff16610df7576040517f08c379a0000000000000000000000000000000000000000000000000000000008152600401610dee90611ee5565b60405180910390fd5b6040518061010001604052808781526020018681526020018573ffffffffffffffffffffffffffffffffffffffff168152602001848152602001838152602001828152602001600015158152602001600115158152506002600060035481526020019081526020016000206000820151816000019081610e77919061228f565b506020820151816001015560408201518160020160006101000a81548173ffffffffffffffffffffffffffffffffffffffff021916908373ffffffffffffffffffffffffffffffffffffffff1602179055506060820151816003019081610ede919061228f565b506080820151816004019081610ef4919061228f565b5060a0820151816005019080519060200190610f1192919061142d565b5060c08201518160060160006101000a81548160ff02191690831515021790555060e08201518160060160016101000a81548160ff0219169083151502179055509050506003547fea2b4bbe2043dda8b40628f7f530c3d2d403ab1e29aa8981d1d1d7392226d66f6001604051610f889190611741565b60405180910390a260036000815480929190610fa390611f63565b9190505550505050505050565b610fb8611250565b6001600083815260200190815260200160002060020160009054906101000a900460ff1661101b576040517f08c379a000000000000000000000000000000000000000000000000000000000815260040161101290611ee5565b60405180910390fd5b600081511161105f576040517f08c379a0000000000000000000000000000000000000000000000000000000008152600401611056906120c3565b60405180910390fd5b806001600084815260200190815260200160002060000190805190602001906110899291906113a3565b50817f56ee10cac94d2ac2241653d4921df0a3e359b93c4634aad2ad59608a524199d7826040516110ba9190611c10565b60405180910390a25050565b6110ce611250565b600073ffffffffffffffffffffffffffffffffffffffff168173ffffffffffffffffffffffffffffffffffffffff16036111405760006040517f1e4fbdf70000000000000000000000000000000000000000000000000000000081526004016111379190611b37565b60405180910390fd5b611149816112d7565b50565b60006002600083815260200190815260200160002090508060060160009054906101000a900460ff16156111b5576040517f08c379a00000000000000000000000000000000000000000000000000000000081526004016111ac906123e4565b60405180910390fd5b6111c38160010154336104a1565b611202576040517f08c379a00000000000000000000000000000000000000000000000000000000081526004016111f990612476565b60405180910390fd5b60018160060160006101000a81548160ff021916908315150217905550817fd26d73beab97391bb9b226331b35668847e983fc340816389ece17cac75fd2b260405160405180910390a25050565b61125861139b565b73ffffffffffffffffffffffffffffffffffffffff16611276610a48565b73ffffffffffffffffffffffffffffffffffffffff16146112d55761129961139b565b6040517f118cdaa70000000000000000000000000000000000000000000000000000000081526004016112cc9190611b37565b60405180910390fd5b565b60008060009054906101000a900473ffffffffffffffffffffffffffffffffffffffff169050816000806101000a81548173ffffffffffffffffffffffffffffffffffffffff021916908373ffffffffffffffffffffffffffffffffffffffff1602179055508173ffffffffffffffffffffffffffffffffffffffff168173ffffffffffffffffffffffffffffffffffffffff167f8be0079c531659141344cd1fd0a4f28419497f9722a3daafe3b4186f6b6457e060405160405180910390a35050565b600033905090565b82805482825590600052602060002090810192821561141c579160200282015b8281111561141b5782518260006101000a81548173ffffffffffffffffffffffffffffffffffffffff021916908373ffffffffffffffffffffffffffffffffffffffff160217905550916020019190600101906113c3565b5b5090506114299190611486565b5090565b828054828255906000526020600020908101928215611475579160200282015b82811115611474578251829081611464919061228f565b509160200191906001019061144d565b5b50905061148291906114a3565b5090565b5b8082111561149f576000816000905550600101611487565b5090565b5b808211156114c357600081816114ba91906114c7565b506001016114a4565b5090565b5080546114d390611fda565b6000825580601f106114e55750611504565b601f0160209004906000526020600020908101906115039190611486565b5b50565b6000604051905090565b600080fd5b600080fd5b6000819050919050565b61152e8161151b565b811461153957600080fd5b50565b60008135905061154b81611525565b92915050565b60006020828403121561156757611566611511565b5b60006115758482850161153c565b91505092915050565b600081519050919050565b600082825260208201905092915050565b6000819050602082019050919050565b6115b38161151b565b82525050565b60006115c583836115aa565b60208301905092915050565b6000602082019050919050565b60006115e98261157e565b6115f38185611589565b93506115fe8361159a565b8060005b8381101561162f57815161161688826115b9565b9750611621836115d1565b925050600181019050611602565b5085935050505092915050565b6000602082019050818103600083015261165681846115de565b905092915050565b6116678161151b565b82525050565b6000602082019050611682600083018461165e565b92915050565b600073ffffffffffffffffffffffffffffffffffffffff82169050919050565b60006116b382611688565b9050919050565b6116c3816116a8565b81146116ce57600080fd5b50565b6000813590506116e0816116ba565b92915050565b600080604083850312156116fd576116fc611511565b5b600061170b8582860161153c565b925050602061171c858286016116d1565b9150509250929050565b60008115159050919050565b61173b81611726565b82525050565b60006020820190506117566000830184611732565b92915050565b600081519050919050565b600082825260208201905092915050565b60005b8381101561179657808201518184015260208101905061177b565b60008484015250505050565b6000601f19601f8301169050919050565b60006117be8261175c565b6117c88185611767565b93506117d8818560208601611778565b6117e1816117a2565b840191505092915050565b6000604082019050818103600083015261180681856117b3565b90506118156020830184611732565b9392505050565b611825816116a8565b82525050565b600060e0820190508181036000830152611845818a6117b3565b9050611854602083018961165e565b611861604083018861181c565b818103606083015261187381876117b3565b9050818103608083015261188781866117b3565b905061189660a0830185611732565b6118a360c0830184611732565b98975050505050505050565b600080fd5b7f4e487b7100000000000000000000000000000000000000000000000000000000600052604160045260246000fd5b6118ec826117a2565b810181811067ffffffffffffffff8211171561190b5761190a6118b4565b5b80604052505050565b600061191e611507565b905061192a82826118e3565b919050565b600067ffffffffffffffff82111561194a576119496118b4565b5b602082029050602081019050919050565b600080fd5b600061197361196e8461192f565b611914565b905080838252602082019050602084028301858111156119965761199561195b565b5b835b818110156119bf57806119ab88826116d1565b845260208401935050602081019050611998565b5050509392505050565b600082601f8301126119de576119dd6118af565b5b81356119ee848260208601611960565b91505092915050565b600080fd5b600067ffffffffffffffff821115611a1757611a166118b4565b5b611a20826117a2565b9050602081019050919050565b82818337600083830152505050565b6000611a4f611a4a846119fc565b611914565b905082815260208101848484011115611a6b57611a6a6119f7565b5b611a76848285611a2d565b509392505050565b600082601f830112611a9357611a926118af565b5b8135611aa3848260208601611a3c565b91505092915050565b600080600060608486031215611ac557611ac4611511565b5b6000611ad38682870161153c565b935050602084013567ffffffffffffffff811115611af457611af3611516565b5b611b00868287016119c9565b925050604084013567ffffffffffffffff811115611b2157611b20611516565b5b611b2d86828701611a7e565b9150509250925092565b6000602082019050611b4c600083018461181c565b92915050565b600081519050919050565b600082825260208201905092915050565b6000819050602082019050919050565b611b87816116a8565b82525050565b6000611b998383611b7e565b60208301905092915050565b6000602082019050919050565b6000611bbd82611b52565b611bc78185611b5d565b9350611bd283611b6e565b8060005b83811015611c03578151611bea8882611b8d565b9750611bf583611ba5565b925050600181019050611bd6565b5085935050505092915050565b60006020820190508181036000830152611c2a8184611bb2565b905092915050565b600067ffffffffffffffff821115611c4d57611c4c6118b4565b5b602082029050602081019050919050565b6000611c71611c6c84611c32565b611914565b90508083825260208201905060208402830185811115611c9457611c9361195b565b5b835b81811015611cdb57803567ffffffffffffffff811115611cb957611cb86118af565b5b808601611cc68982611a7e565b85526020850194505050602081019050611c96565b5050509392505050565b600082601f830112611cfa57611cf96118af565b5b8135611d0a848260208601611c5e565b91505092915050565b60008060008060008060c08789031215611d3057611d2f611511565b5b600087013567ffffffffffffffff811115611d4e57611d4d611516565b5b611d5a89828a01611a7e565b9650506020611d6b89828a0161153c565b9550506040611d7c89828a016116d1565b945050606087013567ffffffffffffffff811115611d9d57611d9c611516565b5b611da989828a01611a7e565b935050608087013567ffffffffffffffff811115611dca57611dc9611516565b5b611dd689828a01611a7e565b92505060a087013567ffffffffffffffff811115611df757611df6611516565b5b611e0389828a01611ce5565b9150509295509295509295565b60008060408385031215611e2757611e26611511565b5b6000611e358582860161153c565b925050602083013567ffffffffffffffff811115611e5657611e55611516565b5b611e62858286016119c9565b9150509250929050565b600060208284031215611e8257611e81611511565b5b6000611e90848285016116d1565b91505092915050565b7f5375622d6f7267616e697a6174696f6e20646f6573206e6f742065786973742e600082015250565b6000611ecf602083611767565b9150611eda82611e99565b602082019050919050565b60006020820190508181036000830152611efe81611ec2565b9050919050565b7f4e487b7100000000000000000000000000000000000000000000000000000000600052603260045260246000fd5b7f4e487b7100000000000000000000000000000000000000000000000000000000600052601160045260246000fd5b6000611f6e8261151b565b91507fffffffffffffffffffffffffffffffffffffffffffffffffffffffffffffffff8203611fa057611f9f611f34565b5b600182019050919050565b7f4e487b7100000000000000000000000000000000000000000000000000000000600052602260045260246000fd5b60006002820490506001821680611ff257607f821691505b60208210810361200557612004611fab565b5b50919050565b7f5375622d6f7267616e697a6174696f6e20616c7265616479206578697374732e600082015250565b6000612041602083611767565b915061204c8261200b565b602082019050919050565b6000602082019050818103600083015261207081612034565b9050919050565b7f4174206c65617374206f6e652061646d696e2069732072657175697265642e00600082015250565b60006120ad601f83611767565b91506120b882612077565b602082019050919050565b600060208201905081810360008301526120dc816120a0565b9050919050565b60008190508160005260206000209050919050565b60006020601f8301049050919050565b600082821b905092915050565b6000600883026121457fffffffffffffffffffffffffffffffffffffffffffffffffffffffffffffffff82612108565b61214f8683612108565b95508019841693508086168417925050509392505050565b6000819050919050565b600061218c6121876121828461151b565b612167565b61151b565b9050919050565b6000819050919050565b6121a683612171565b6121ba6121b282612193565b848454612115565b825550505050565b600090565b6121cf6121c2565b6121da81848461219d565b505050565b5b818110156121fe576121f36000826121c7565b6001810190506121e0565b5050565b601f82111561224357612214816120e3565b61221d846120f8565b8101602085101561222c578190505b612240612238856120f8565b8301826121df565b50505b505050565b600082821c905092915050565b600061226660001984600802612248565b1980831691505092915050565b600061227f8383612255565b9150826002028217905092915050565b6122988261175c565b67ffffffffffffffff8111156122b1576122b06118b4565b5b6122bb8254611fda565b6122c6828285612202565b600060209050601f8311600181146122f957600084156122e7578287015190505b6122f18582612273565b865550612359565b601f198416612307866120e3565b60005b8281101561232f5784890151825560018201915060208501945060208101905061230a565b8683101561234c5784890151612348601f891682612255565b8355505b6001600288020188555050505b505050505050565b6000604082019050818103600083015261237b8185611bb2565b9050818103602083015261238f81846117b3565b90509392505050565b7f436f6d706c61696e7420697320616c7265616479207265736f6c7665642e0000600082015250565b60006123ce601e83611767565b91506123d982612398565b602082019050919050565b600060208201905081810360008301526123fd816123c1565b9050919050565b7f43616c6c6572206973206e6f7420616e2061646d696e206f662074686520726560008201527f6c6576616e74207375622d6f7267616e697a6174696f6e2e0000000000000000602082015250565b6000612460603883611767565b915061246b82612404565b604082019050919050565b6000602082019050818103600083015261248f81612453565b905091905056fea2646970667358221220f064a888e7952d00b472e2069e6a2554a3a2e4d3aed96dcf663579222707cff064736f6c63430008180033",
  "linkReferences": {},
  "deployedLinkReferences": {}
}